{
  "_format": "hh-sol-artifact-1",
  "contractName": "AssetDriving",
  "sourceName": "contracts/AssetDriving.sol",
  "abi": [
    {
      "anonymous": false,
      "inputs": [
        {
          "indexed": true,
          "internalType": "address",
          "name": "previousOwner",
          "type": "address"
        },
        {
          "indexed": true,
          "internalType": "address",
          "name": "newOwner",
          "type": "address"
        }
      ],
      "name": "OwnershipTransferred",
      "type": "event"
    },
    {
      "anonymous": false,
      "inputs": [
        {
          "indexed": false,
          "internalType": "address",
          "name": "account",
          "type": "address"
        }
      ],
      "name": "Paused",
      "type": "event"
    },
    {
      "anonymous": false,
      "inputs": [
        {
          "indexed": false,
          "internalType": "address",
          "name": "account",
          "type": "address"
        }
      ],
      "name": "Unpaused",
      "type": "event"
    },
    {
      "inputs": [
        {
          "internalType": "address",
          "name": "",
          "type": "address"
        }
      ],
      "name": "actionAllowed",
      "outputs": [
        {
          "internalType": "bool",
          "name": "",
          "type": "bool"
        }
      ],
      "stateMutability": "view",
      "type": "function"
    },
    {
      "inputs": [
        {
          "internalType": "address",
          "name": "_club",
          "type": "address"
        }
      ],
      "name": "cancelMember",
      "outputs": [],
      "stateMutability": "nonpayable",
      "type": "function"
    },
    {
      "inputs": [
        {
          "internalType": "uint256",
          "name": "id",
          "type": "uint256"
        }
      ],
      "name": "cancelSelling",
      "outputs": [],
      "stateMutability": "nonpayable",
      "type": "function"
    },
    {
      "inputs": [
        {
          "internalType": "uint256",
          "name": "id",
          "type": "uint256"
        },
        {
          "internalType": "uint256",
          "name": "newPrice",
          "type": "uint256"
        }
      ],
      "name": "changeSellingPrice",
      "outputs": [],
      "stateMutability": "nonpayable",
      "type": "function"
    },
    {
      "inputs": [
        {
          "internalType": "uint256",
          "name": "id",
          "type": "uint256"
        }
      ],
      "name": "getPrice",
      "outputs": [
        {
          "internalType": "uint256",
          "name": "",
          "type": "uint256"
        }
      ],
      "stateMutability": "view",
      "type": "function"
    },
    {
      "inputs": [
        {
          "internalType": "uint256",
          "name": "index",
          "type": "uint256"
        }
      ],
      "name": "getStatus",
      "outputs": [
        {
          "internalType": "enum AssetDriving.Status",
          "name": "",
          "type": "uint8"
        }
      ],
      "stateMutability": "view",
      "type": "function"
    },
    {
      "inputs": [
        {
          "internalType": "uint256",
          "name": "auctionID",
          "type": "uint256"
        }
      ],
      "name": "isInAuction",
      "outputs": [
        {
          "internalType": "bool",
          "name": "",
          "type": "bool"
        }
      ],
      "stateMutability": "view",
      "type": "function"
    },
    {
      "inputs": [
        {
          "internalType": "uint256",
          "name": "id",
          "type": "uint256"
        }
      ],
      "name": "isToSell",
      "outputs": [
        {
          "internalType": "bool",
          "name": "",
          "type": "bool"
        }
      ],
      "stateMutability": "view",
      "type": "function"
    },
    {
      "inputs": [],
      "name": "owner",
      "outputs": [
        {
          "internalType": "address",
          "name": "",
          "type": "address"
        }
      ],
      "stateMutability": "view",
      "type": "function"
    },
    {
      "inputs": [],
      "name": "paused",
      "outputs": [
        {
          "internalType": "bool",
          "name": "",
          "type": "bool"
        }
      ],
      "stateMutability": "view",
      "type": "function"
    },
    {
      "inputs": [
        {
          "internalType": "uint256",
          "name": "id",
          "type": "uint256"
        },
        {
          "internalType": "uint256",
          "name": "price",
          "type": "uint256"
        }
      ],
      "name": "putToSell",
      "outputs": [],
      "stateMutability": "nonpayable",
      "type": "function"
    },
    {
      "inputs": [
        {
          "internalType": "address",
          "name": "_club",
          "type": "address"
        }
      ],
      "name": "registerMember",
      "outputs": [],
      "stateMutability": "nonpayable",
      "type": "function"
    },
    {
      "inputs": [],
      "name": "renounceOwnership",
      "outputs": [],
      "stateMutability": "nonpayable",
      "type": "function"
    },
    {
      "inputs": [
        {
          "internalType": "address",
          "name": "newOwner",
          "type": "address"
        }
      ],
      "name": "transferOwnership",
      "outputs": [],
      "stateMutability": "nonpayable",
      "type": "function"
    }
  ],
  "bytecode": "0x608060405234801561001057600080fd5b50600080546001600160a01b031916339081178255604051909182917f8be0079c531659141344cd1fd0a4f28419497f9722a3daafe3b4186f6b6457e0908290a3506000805460ff60a01b19169055610d2f8061006e6000396000f3fe608060405234801561001057600080fd5b50600436106100ea5760003560e01c80638da5cb5b1161008c578063cf8fd54a11610066578063cf8fd54a146101f7578063e75722301461020a578063f2fde38b14610243578063fcb4888e1461025657600080fd5b80638da5cb5b146101b6578063bbb2c109146101d1578063c3c5efaf146101e457600080fd5b80635c975abb116100c85780635c975abb146101665780636a375b2814610178578063715018a61461019b57806386a6bcdf146101a357600080fd5b806317fedbc2146100ef5780632f33df60146101315780635c622a0e14610146575b600080fd5b61011c6100fd366004610c16565b3360009081526002602090815260408083209383529290522054151590565b60405190151581526020015b60405180910390f35b61014461013f366004610c16565b610269565b005b610159610154366004610c16565b6103d6565b6040516101289190610c51565b600054600160a01b900460ff1661011c565b61011c610186366004610be6565b60016020526000908152604090205460ff1681565b61014461047e565b6101446101b1366004610be6565b61052f565b6000546040516001600160a01b039091168152602001610128565b6101446101df366004610c2f565b6105aa565b61011c6101f2366004610c16565b6107a0565b610144610205366004610c2f565b6107fc565b610235610218366004610c16565b336000908152600260209081526040808320938352929052205490565b604051908152602001610128565b610144610251366004610be6565b610990565b610144610264366004610be6565b610ace565b3360009081526001602052604090205460ff166102bc5760405162461bcd60e51b815260206004820152600c60248201526b24b73b30b634b2102ab9b2b960a11b60448201526064015b60405180910390fd5b3360009081526002602090815260408083208484529091529020546103235760405162461bcd60e51b815260206004820152601960248201527f5468697320746f6b656e206973206e6f7420746f2073656c6c0000000000000060448201526064016102b3565b336103625760405162461bcd60e51b815260206004820152600f60248201526e496e76616c6964206164647265737360881b60448201526064016102b3565b61036b816107a0565b156103b85760405162461bcd60e51b815260206004820152601660248201527f54686973204e465420697320696e2061756374696f6e0000000000000000000060448201526064016102b3565b33600090815260026020908152604080832093835292905290812055565b3360009081526003602052604081208054829190849081106103fa576103fa610d0c565b60009182526020909120600790910201600281015490915061042f906fffffffffffffffffffffffffffffffff16603c610c91565b6fffffffffffffffffffffffffffffffff1681600401546104509190610c79565b4210156104605750600192915050565b600681015460ff166104755750600092915050565b50600292915050565b6000546001600160a01b031633146104d85760405162461bcd60e51b815260206004820181905260248201527f4f776e61626c653a2063616c6c6572206973206e6f7420746865206f776e657260448201526064016102b3565b600080546040516001600160a01b03909116907f8be0079c531659141344cd1fd0a4f28419497f9722a3daafe3b4186f6b6457e0908390a36000805473ffffffffffffffffffffffffffffffffffffffff19169055565b6000546001600160a01b031633146105895760405162461bcd60e51b815260206004820181905260248201527f4f776e61626c653a2063616c6c6572206973206e6f7420746865206f776e657260448201526064016102b3565b6001600160a01b03166000908152600160205260409020805460ff19169055565b600054600160a01b900460ff16156105f75760405162461bcd60e51b815260206004820152601060248201526f14185d5cd8589b194e881c185d5cd95960821b60448201526064016102b3565b3360009081526001602052604090205460ff166106455760405162461bcd60e51b815260206004820152600c60248201526b24b73b30b634b2102ab9b2b960a11b60448201526064016102b3565b600081116106855760405162461bcd60e51b815260206004820152600d60248201526c141c9a58d9481a5b9d985b1a59609a1b60448201526064016102b3565b3360009081526002602090815260408083208584529091529020546106ec5760405162461bcd60e51b815260206004820152601960248201527f5468697320746f6b656e206973206e6f7420746f2073656c6c0000000000000060448201526064016102b3565b3361072b5760405162461bcd60e51b815260206004820152600f60248201526e496e76616c6964206164647265737360881b60448201526064016102b3565b610734826107a0565b156107815760405162461bcd60e51b815260206004820152601660248201527f54686973204e465420697320696e2061756374696f6e0000000000000000000060448201526064016102b3565b3360009081526002602090815260408083209483529390529190912055565b336000908152600360205260408120546107bc57506000919050565b81156107f4576107d56107d0600184610cc9565b610bb8565b806107ee57506107ee6107e9600184610cc9565b610bde565b92915050565b506000919050565b600054600160a01b900460ff16156108495760405162461bcd60e51b815260206004820152601060248201526f14185d5cd8589b194e881c185d5cd95960821b60448201526064016102b3565b3360009081526001602052604090205460ff166108975760405162461bcd60e51b815260206004820152600c60248201526b24b73b30b634b2102ab9b2b960a11b60448201526064016102b3565b600081116108d75760405162461bcd60e51b815260206004820152600d60248201526c141c9a58d9481a5b9d985b1a59609a1b60448201526064016102b3565b336109165760405162461bcd60e51b815260206004820152600f60248201526e496e76616c6964206164647265737360881b60448201526064016102b3565b3360009081526002602090815260408083208584529091529020541580156109445750610942826107a0565b155b6107815760405162461bcd60e51b815260206004820152601c60248201527f54686973204e465420697320616c726561647920746f2074726164650000000060448201526064016102b3565b6000546001600160a01b031633146109ea5760405162461bcd60e51b815260206004820181905260248201527f4f776e61626c653a2063616c6c6572206973206e6f7420746865206f776e657260448201526064016102b3565b6001600160a01b038116610a665760405162461bcd60e51b815260206004820152602660248201527f4f776e61626c653a206e6577206f776e657220697320746865207a65726f206160448201527f646472657373000000000000000000000000000000000000000000000000000060648201526084016102b3565b600080546040516001600160a01b03808516939216917f8be0079c531659141344cd1fd0a4f28419497f9722a3daafe3b4186f6b6457e091a36000805473ffffffffffffffffffffffffffffffffffffffff19166001600160a01b0392909216919091179055565b6000546001600160a01b03163314610b285760405162461bcd60e51b815260206004820181905260248201527f4f776e61626c653a2063616c6c6572206973206e6f7420746865206f776e657260448201526064016102b3565b6001600160a01b03811660009081526001602052604090205460ff1615610b915760405162461bcd60e51b815260206004820152601560248201527f534320616c72656164792072656769737465726564000000000000000000000060448201526064016102b3565b6001600160a01b03166000908152600160208190526040909120805460ff19169091179055565b600060015b610bc6836103d6565b6002811115610bd757610bd7610cf6565b1492915050565b600080610bbd565b600060208284031215610bf857600080fd5b81356001600160a01b0381168114610c0f57600080fd5b9392505050565b600060208284031215610c2857600080fd5b5035919050565b60008060408385031215610c4257600080fd5b50508035926020909101359150565b6020810160038310610c7357634e487b7160e01b600052602160045260246000fd5b91905290565b60008219821115610c8c57610c8c610ce0565b500190565b60006fffffffffffffffffffffffffffffffff80831681851681830481118215151615610cc057610cc0610ce0565b02949350505050565b600082821015610cdb57610cdb610ce0565b500390565b634e487b7160e01b600052601160045260246000fd5b634e487b7160e01b600052602160045260246000fd5b634e487b7160e01b600052603260045260246000fdfea164736f6c6343000805000a",
  "linkReferences": {},
  "deployedLinkReferences": {}
}