{
  "_format": "hh-sol-artifact-1",
  "contractName": "Asset",
  "sourceName": "contracts/Asset.sol",
  "abi": [
    {
      "inputs": [
        {
          "internalType": "string",
          "name": "name",
          "type": "string"
        },
        {
          "internalType": "string",
          "name": "symbol",
          "type": "string"
        },
        {
          "internalType": "string",
          "name": "metadataBaseURI",
          "type": "string"
        },
        {
          "internalType": "address payable",
          "name": "casimir",
          "type": "address"
        },
        {
          "internalType": "address",
          "name": "_engine",
          "type": "address"
        }
      ],
      "stateMutability": "nonpayable",
      "type": "constructor"
    },
    {
      "anonymous": false,
      "inputs": [
        {
          "indexed": true,
          "internalType": "address",
          "name": "owner",
          "type": "address"
        },
        {
          "indexed": true,
          "internalType": "address",
          "name": "approved",
          "type": "address"
        },
        {
          "indexed": true,
          "internalType": "uint256",
          "name": "tokenId",
          "type": "uint256"
        }
      ],
      "name": "Approval",
      "type": "event"
    },
    {
      "anonymous": false,
      "inputs": [
        {
          "indexed": true,
          "internalType": "address",
          "name": "owner",
          "type": "address"
        },
        {
          "indexed": true,
          "internalType": "address",
          "name": "operator",
          "type": "address"
        },
        {
          "indexed": false,
          "internalType": "bool",
          "name": "approved",
          "type": "bool"
        }
      ],
      "name": "ApprovalForAll",
      "type": "event"
    },
    {
      "anonymous": false,
      "inputs": [
        {
          "indexed": true,
          "internalType": "address",
          "name": "beneficiary",
          "type": "address"
        },
        {
          "indexed": true,
          "internalType": "address",
          "name": "caller",
          "type": "address"
        }
      ],
      "name": "MinterRoleGranted",
      "type": "event"
    },
    {
      "anonymous": false,
      "inputs": [
        {
          "indexed": true,
          "internalType": "address",
          "name": "beneficiary",
          "type": "address"
        },
        {
          "indexed": true,
          "internalType": "address",
          "name": "caller",
          "type": "address"
        }
      ],
      "name": "MinterRoleRemoved",
      "type": "event"
    },
    {
      "anonymous": false,
      "inputs": [
        {
          "indexed": true,
          "internalType": "address",
          "name": "previousOwner",
          "type": "address"
        },
        {
          "indexed": true,
          "internalType": "address",
          "name": "newOwner",
          "type": "address"
        }
      ],
      "name": "OwnershipTransferred",
      "type": "event"
    },
    {
      "anonymous": false,
      "inputs": [
        {
          "indexed": false,
          "internalType": "address",
          "name": "account",
          "type": "address"
        }
      ],
      "name": "Paused",
      "type": "event"
    },
    {
      "anonymous": false,
      "inputs": [
        {
          "indexed": true,
          "internalType": "bytes32",
          "name": "role",
          "type": "bytes32"
        },
        {
          "indexed": true,
          "internalType": "bytes32",
          "name": "previousAdminRole",
          "type": "bytes32"
        },
        {
          "indexed": true,
          "internalType": "bytes32",
          "name": "newAdminRole",
          "type": "bytes32"
        }
      ],
      "name": "RoleAdminChanged",
      "type": "event"
    },
    {
      "anonymous": false,
      "inputs": [
        {
          "indexed": true,
          "internalType": "bytes32",
          "name": "role",
          "type": "bytes32"
        },
        {
          "indexed": true,
          "internalType": "address",
          "name": "account",
          "type": "address"
        },
        {
          "indexed": true,
          "internalType": "address",
          "name": "sender",
          "type": "address"
        }
      ],
      "name": "RoleGranted",
      "type": "event"
    },
    {
      "anonymous": false,
      "inputs": [
        {
          "indexed": true,
          "internalType": "bytes32",
          "name": "role",
          "type": "bytes32"
        },
        {
          "indexed": true,
          "internalType": "address",
          "name": "account",
          "type": "address"
        },
        {
          "indexed": true,
          "internalType": "address",
          "name": "sender",
          "type": "address"
        }
      ],
      "name": "RoleRevoked",
      "type": "event"
    },
    {
      "anonymous": false,
      "inputs": [
        {
          "indexed": false,
          "internalType": "uint256",
          "name": "price",
          "type": "uint256"
        },
        {
          "indexed": false,
          "internalType": "uint256",
          "name": "id",
          "type": "uint256"
        },
        {
          "indexed": false,
          "internalType": "address",
          "name": "seller",
          "type": "address"
        },
        {
          "indexed": false,
          "internalType": "address",
          "name": "buyer",
          "type": "address"
        }
      ],
      "name": "SellingSuccess",
      "type": "event"
    },
    {
      "anonymous": false,
      "inputs": [
        {
          "indexed": true,
          "internalType": "address",
          "name": "from",
          "type": "address"
        },
        {
          "indexed": true,
          "internalType": "address",
          "name": "to",
          "type": "address"
        },
        {
          "indexed": true,
          "internalType": "uint256",
          "name": "tokenId",
          "type": "uint256"
        }
      ],
      "name": "Transfer",
      "type": "event"
    },
    {
      "anonymous": false,
      "inputs": [
        {
          "indexed": false,
          "internalType": "address",
          "name": "account",
          "type": "address"
        }
      ],
      "name": "Unpaused",
      "type": "event"
    },
    {
      "inputs": [],
      "name": "DEFAULT_ADMIN_ROLE",
      "outputs": [
        {
          "internalType": "bytes32",
          "name": "",
          "type": "bytes32"
        }
      ],
      "stateMutability": "view",
      "type": "function"
    },
    {
      "inputs": [],
      "name": "MINTER_ROLE",
      "outputs": [
        {
          "internalType": "bytes32",
          "name": "",
          "type": "bytes32"
        }
      ],
      "stateMutability": "view",
      "type": "function"
    },
    {
      "inputs": [],
      "name": "_casimir",
      "outputs": [
        {
          "internalType": "address payable",
          "name": "",
          "type": "address"
        }
      ],
      "stateMutability": "view",
      "type": "function"
    },
    {
      "inputs": [
        {
          "internalType": "uint256",
          "name": "_assetPrice",
          "type": "uint256"
        },
        {
          "internalType": "string",
          "name": "_ipfsHash",
          "type": "string"
        },
        {
          "internalType": "uint256",
          "name": "assetIndex",
          "type": "uint256"
        }
      ],
      "name": "addAsset",
      "outputs": [],
      "stateMutability": "nonpayable",
      "type": "function"
    },
    {
      "inputs": [
        {
          "internalType": "address",
          "name": "_address",
          "type": "address"
        }
      ],
      "name": "addMinterRole",
      "outputs": [],
      "stateMutability": "nonpayable",
      "type": "function"
    },
    {
      "inputs": [
        {
          "internalType": "address",
          "name": "to",
          "type": "address"
        },
        {
          "internalType": "uint256",
          "name": "tokenId",
          "type": "uint256"
        }
      ],
      "name": "approve",
      "outputs": [],
      "stateMutability": "nonpayable",
      "type": "function"
    },
    {
      "inputs": [
        {
          "internalType": "uint256",
          "name": "",
          "type": "uint256"
        }
      ],
      "name": "assets",
      "outputs": [
        {
          "internalType": "string",
          "name": "_ipfsHash",
          "type": "string"
        },
        {
          "internalType": "address",
          "name": "_ownerAddress",
          "type": "address"
        },
        {
          "internalType": "uint256",
          "name": "_assetPrice",
          "type": "uint256"
        },
        {
          "internalType": "enum AssetDataObjects.Status",
          "name": "_status",
          "type": "uint8"
        }
      ],
      "stateMutability": "view",
      "type": "function"
    },
    {
      "inputs": [
        {
          "internalType": "address",
          "name": "owner",
          "type": "address"
        }
      ],
      "name": "balanceOf",
      "outputs": [
        {
          "internalType": "uint256",
          "name": "",
          "type": "uint256"
        }
      ],
      "stateMutability": "view",
      "type": "function"
    },
    {
      "inputs": [
        {
          "internalType": "uint256",
          "name": "tokenId",
          "type": "uint256"
        }
      ],
      "name": "burn",
      "outputs": [],
      "stateMutability": "nonpayable",
      "type": "function"
    },
    {
      "inputs": [
        {
          "internalType": "uint256",
          "name": "_tokenId",
          "type": "uint256"
        }
      ],
      "name": "buyNFT",
      "outputs": [],
      "stateMutability": "payable",
      "type": "function"
    },
    {
      "inputs": [
        {
          "internalType": "uint256",
          "name": "_tokenId",
          "type": "uint256"
        }
      ],
      "name": "cancelSelling",
      "outputs": [],
      "stateMutability": "nonpayable",
      "type": "function"
    },
    {
      "inputs": [
        {
          "internalType": "uint256",
          "name": "_tokenId",
          "type": "uint256"
        },
        {
          "internalType": "uint256",
          "name": "_newPrice",
          "type": "uint256"
        }
      ],
      "name": "changeSellingPrice",
      "outputs": [],
      "stateMutability": "nonpayable",
      "type": "function"
    },
    {
      "inputs": [
        {
          "internalType": "uint256",
          "name": "tokenId",
          "type": "uint256"
        }
      ],
      "name": "exists",
      "outputs": [
        {
          "internalType": "bool",
          "name": "",
          "type": "bool"
        }
      ],
      "stateMutability": "view",
      "type": "function"
    },
    {
      "inputs": [],
      "name": "getAllListings",
      "outputs": [
        {
          "components": [
            {
              "internalType": "uint256",
              "name": "tokenId",
              "type": "uint256"
            },
            {
              "internalType": "uint256",
              "name": "price",
              "type": "uint256"
            }
          ],
          "internalType": "struct Asset.Listing[]",
          "name": "",
          "type": "tuple[]"
        }
      ],
      "stateMutability": "view",
      "type": "function"
    },
    {
      "inputs": [],
      "name": "getAllListingsInReverse",
      "outputs": [
        {
          "components": [
            {
              "internalType": "uint256",
              "name": "tokenId",
              "type": "uint256"
            },
            {
              "internalType": "uint256",
              "name": "price",
              "type": "uint256"
            }
          ],
          "internalType": "struct Asset.Listing[]",
          "name": "",
          "type": "tuple[]"
        }
      ],
      "stateMutability": "view",
      "type": "function"
    },
    {
      "inputs": [
        {
          "internalType": "uint256",
          "name": "tokenId",
          "type": "uint256"
        }
      ],
      "name": "getApproved",
      "outputs": [
        {
          "internalType": "address",
          "name": "",
          "type": "address"
        }
      ],
      "stateMutability": "view",
      "type": "function"
    },
    {
      "inputs": [
        {
          "internalType": "uint256",
          "name": "tokenId",
          "type": "uint256"
        }
      ],
      "name": "getAssetIndexByTokenId",
      "outputs": [
        {
          "internalType": "uint256",
          "name": "",
          "type": "uint256"
        }
      ],
      "stateMutability": "view",
      "type": "function"
    },
    {
      "inputs": [
        {
          "internalType": "uint256",
          "name": "assetIndex",
          "type": "uint256"
        }
      ],
      "name": "getAssetNFT",
      "outputs": [
        {
          "components": [
            {
              "internalType": "string",
              "name": "_ipfsHash",
              "type": "string"
            },
            {
              "internalType": "address",
              "name": "_ownerAddress",
              "type": "address"
            },
            {
              "internalType": "uint256",
              "name": "_assetPrice",
              "type": "uint256"
            },
            {
              "internalType": "enum AssetDataObjects.Status",
              "name": "_status",
              "type": "uint8"
            }
          ],
          "internalType": "struct AssetDataObjects.AssetNFT",
          "name": "asset_",
          "type": "tuple"
        }
      ],
      "stateMutability": "view",
      "type": "function"
    },
    {
      "inputs": [
        {
          "internalType": "address",
          "name": "user",
          "type": "address"
        }
      ],
      "name": "getListingsByUser",
      "outputs": [
        {
          "components": [
            {
              "internalType": "uint256",
              "name": "tokenId",
              "type": "uint256"
            },
            {
              "internalType": "uint256",
              "name": "price",
              "type": "uint256"
            }
          ],
          "internalType": "struct Asset.Listing[]",
          "name": "",
          "type": "tuple[]"
        }
      ],
      "stateMutability": "view",
      "type": "function"
    },
    {
      "inputs": [
        {
          "internalType": "uint256",
          "name": "_tokenId",
          "type": "uint256"
        }
      ],
      "name": "getPrice",
      "outputs": [
        {
          "internalType": "uint256",
          "name": "",
          "type": "uint256"
        }
      ],
      "stateMutability": "view",
      "type": "function"
    },
    {
      "inputs": [
        {
          "internalType": "bytes32",
          "name": "role",
          "type": "bytes32"
        }
      ],
      "name": "getRoleAdmin",
      "outputs": [
        {
          "internalType": "bytes32",
          "name": "",
          "type": "bytes32"
        }
      ],
      "stateMutability": "view",
      "type": "function"
    },
    {
      "inputs": [
        {
          "internalType": "bytes32",
          "name": "role",
          "type": "bytes32"
        },
        {
          "internalType": "uint256",
          "name": "index",
          "type": "uint256"
        }
      ],
      "name": "getRoleMember",
      "outputs": [
        {
          "internalType": "address",
          "name": "",
          "type": "address"
        }
      ],
      "stateMutability": "view",
      "type": "function"
    },
    {
      "inputs": [
        {
          "internalType": "bytes32",
          "name": "role",
          "type": "bytes32"
        }
      ],
      "name": "getRoleMemberCount",
      "outputs": [
        {
          "internalType": "uint256",
          "name": "",
          "type": "uint256"
        }
      ],
      "stateMutability": "view",
      "type": "function"
    },
    {
      "inputs": [
        {
          "internalType": "uint256",
          "name": "assetIndex",
          "type": "uint256"
        }
      ],
      "name": "getTokenIdByAssetIndex",
      "outputs": [
        {
          "internalType": "uint256",
          "name": "",
          "type": "uint256"
        }
      ],
      "stateMutability": "view",
      "type": "function"
    },
    {
      "inputs": [
        {
          "internalType": "bytes32",
          "name": "role",
          "type": "bytes32"
        },
        {
          "internalType": "address",
          "name": "account",
          "type": "address"
        }
      ],
      "name": "grantRole",
      "outputs": [],
      "stateMutability": "nonpayable",
      "type": "function"
    },
    {
      "inputs": [
        {
          "internalType": "address",
          "name": "_address",
          "type": "address"
        }
      ],
      "name": "hasMinterRole",
      "outputs": [
        {
          "internalType": "bool",
          "name": "",
          "type": "bool"
        }
      ],
      "stateMutability": "view",
      "type": "function"
    },
    {
      "inputs": [
        {
          "internalType": "bytes32",
          "name": "role",
          "type": "bytes32"
        },
        {
          "internalType": "address",
          "name": "account",
          "type": "address"
        }
      ],
      "name": "hasRole",
      "outputs": [
        {
          "internalType": "bool",
          "name": "",
          "type": "bool"
        }
      ],
      "stateMutability": "view",
      "type": "function"
    },
    {
      "inputs": [
        {
          "internalType": "address",
          "name": "owner",
          "type": "address"
        },
        {
          "internalType": "address",
          "name": "operator",
          "type": "address"
        }
      ],
      "name": "isApprovedForAll",
      "outputs": [
        {
          "internalType": "bool",
          "name": "",
          "type": "bool"
        }
      ],
      "stateMutability": "view",
      "type": "function"
    },
    {
      "inputs": [
        {
          "internalType": "uint256",
          "name": "tokenID",
          "type": "uint256"
        }
      ],
      "name": "isInAuction",
      "outputs": [
        {
          "internalType": "bool",
          "name": "",
          "type": "bool"
        }
      ],
      "stateMutability": "view",
      "type": "function"
    },
    {
      "inputs": [
        {
          "internalType": "uint256",
          "name": "_tokenId",
          "type": "uint256"
        }
      ],
      "name": "isToSell",
      "outputs": [
        {
          "internalType": "bool",
          "name": "",
          "type": "bool"
        }
      ],
      "stateMutability": "view",
      "type": "function"
    },
    {
      "inputs": [
        {
          "internalType": "uint256",
          "name": "assetIndex",
          "type": "uint256"
        },
        {
          "internalType": "address",
          "name": "owner",
          "type": "address"
        }
      ],
      "name": "mint",
      "outputs": [],
      "stateMutability": "nonpayable",
      "type": "function"
    },
    {
      "inputs": [],
      "name": "name",
      "outputs": [
        {
          "internalType": "string",
          "name": "",
          "type": "string"
        }
      ],
      "stateMutability": "view",
      "type": "function"
    },
    {
      "inputs": [],
      "name": "owner",
      "outputs": [
        {
          "internalType": "address",
          "name": "",
          "type": "address"
        }
      ],
      "stateMutability": "view",
      "type": "function"
    },
    {
      "inputs": [
        {
          "internalType": "uint256",
          "name": "tokenId",
          "type": "uint256"
        }
      ],
      "name": "ownerOf",
      "outputs": [
        {
          "internalType": "address",
          "name": "",
          "type": "address"
        }
      ],
      "stateMutability": "view",
      "type": "function"
    },
    {
      "inputs": [],
      "name": "pauseContract",
      "outputs": [],
      "stateMutability": "nonpayable",
      "type": "function"
    },
    {
      "inputs": [],
      "name": "paused",
      "outputs": [
        {
          "internalType": "bool",
          "name": "",
          "type": "bool"
        }
      ],
      "stateMutability": "view",
      "type": "function"
    },
    {
      "inputs": [
        {
          "internalType": "uint256",
          "name": "_tokenId",
          "type": "uint256"
        },
        {
          "internalType": "uint256",
          "name": "_price",
          "type": "uint256"
        }
      ],
      "name": "putToSell",
      "outputs": [],
      "stateMutability": "nonpayable",
      "type": "function"
    },
    {
      "inputs": [
        {
          "internalType": "address",
          "name": "_address",
          "type": "address"
        }
      ],
      "name": "removeMinterRole",
      "outputs": [],
      "stateMutability": "nonpayable",
      "type": "function"
    },
    {
      "inputs": [],
      "name": "renounceOwnership",
      "outputs": [],
      "stateMutability": "nonpayable",
      "type": "function"
    },
    {
      "inputs": [
        {
          "internalType": "bytes32",
          "name": "role",
          "type": "bytes32"
        },
        {
          "internalType": "address",
          "name": "account",
          "type": "address"
        }
      ],
      "name": "renounceRole",
      "outputs": [],
      "stateMutability": "nonpayable",
      "type": "function"
    },
    {
      "inputs": [
        {
          "internalType": "bytes32",
          "name": "role",
          "type": "bytes32"
        },
        {
          "internalType": "address",
          "name": "account",
          "type": "address"
        }
      ],
      "name": "revokeRole",
      "outputs": [],
      "stateMutability": "nonpayable",
      "type": "function"
    },
    {
      "inputs": [
        {
          "internalType": "address",
          "name": "from",
          "type": "address"
        },
        {
          "internalType": "address",
          "name": "to",
          "type": "address"
        },
        {
          "internalType": "uint256",
          "name": "tokenId",
          "type": "uint256"
        }
      ],
      "name": "safeTransferFrom",
      "outputs": [],
      "stateMutability": "nonpayable",
      "type": "function"
    },
    {
      "inputs": [
        {
          "internalType": "address",
          "name": "from",
          "type": "address"
        },
        {
          "internalType": "address",
          "name": "to",
          "type": "address"
        },
        {
          "internalType": "uint256",
          "name": "tokenId",
          "type": "uint256"
        },
        {
          "internalType": "bytes",
          "name": "_data",
          "type": "bytes"
        }
      ],
      "name": "safeTransferFrom",
      "outputs": [],
      "stateMutability": "nonpayable",
      "type": "function"
    },
    {
      "inputs": [
        {
          "internalType": "address",
          "name": "operator",
          "type": "address"
        },
        {
          "internalType": "bool",
          "name": "approved",
          "type": "bool"
        }
      ],
      "name": "setApprovalForAll",
      "outputs": [],
      "stateMutability": "nonpayable",
      "type": "function"
    },
    {
      "inputs": [
        {
          "internalType": "string",
          "name": "newBaseUri",
          "type": "string"
        }
      ],
      "name": "setBaseURI",
      "outputs": [],
      "stateMutability": "nonpayable",
      "type": "function"
    },
    {
      "inputs": [],
      "name": "status",
      "outputs": [
        {
          "internalType": "enum AssetDataObjects.Status",
          "name": "",
          "type": "uint8"
        }
      ],
      "stateMutability": "view",
      "type": "function"
    },
    {
      "inputs": [
        {
          "internalType": "bytes4",
          "name": "interfaceId",
          "type": "bytes4"
        }
      ],
      "name": "supportsInterface",
      "outputs": [
        {
          "internalType": "bool",
          "name": "",
          "type": "bool"
        }
      ],
      "stateMutability": "view",
      "type": "function"
    },
    {
      "inputs": [],
      "name": "symbol",
      "outputs": [
        {
          "internalType": "string",
          "name": "",
          "type": "string"
        }
      ],
      "stateMutability": "view",
      "type": "function"
    },
    {
      "inputs": [
        {
          "internalType": "uint256",
          "name": "",
          "type": "uint256"
        }
      ],
      "name": "tokenToAuction",
      "outputs": [
        {
          "internalType": "uint256",
          "name": "",
          "type": "uint256"
        }
      ],
      "stateMutability": "view",
      "type": "function"
    },
    {
      "inputs": [
        {
          "internalType": "uint256",
          "name": "tokenId",
          "type": "uint256"
        }
      ],
      "name": "tokenURI",
      "outputs": [
        {
          "internalType": "string",
          "name": "",
          "type": "string"
        }
      ],
      "stateMutability": "view",
      "type": "function"
    },
    {
      "inputs": [],
      "name": "totalListings",
      "outputs": [
        {
          "internalType": "uint256",
          "name": "",
          "type": "uint256"
        }
      ],
      "stateMutability": "view",
      "type": "function"
    },
    {
      "inputs": [
        {
          "internalType": "address",
          "name": "from",
          "type": "address"
        },
        {
          "internalType": "address",
          "name": "to",
          "type": "address"
        },
        {
          "internalType": "uint256",
          "name": "tokenId",
          "type": "uint256"
        }
      ],
      "name": "transferFrom",
      "outputs": [],
      "stateMutability": "nonpayable",
      "type": "function"
    },
    {
      "inputs": [
        {
          "internalType": "address",
          "name": "newOwner",
          "type": "address"
        }
      ],
      "name": "transferOwnership",
      "outputs": [],
      "stateMutability": "nonpayable",
      "type": "function"
    },
    {
      "inputs": [],
      "name": "unpauseContract",
      "outputs": [],
      "stateMutability": "nonpayable",
      "type": "function"
    },
    {
      "inputs": [
        {
          "internalType": "address",
          "name": "_engine",
          "type": "address"
        }
      ],
      "name": "updateEngine",
      "outputs": [],
      "stateMutability": "nonpayable",
      "type": "function"
    }
  ],
  "bytecode": "0x60806040523480156200001157600080fd5b5060405162004bcb38038062004bcb8339810160408190526200003491620003fa565b8451859085906200004d9060029060208501906200029d565b508051620000639060039060208401906200029d565b50506009805460ff1916905550600b80546001600160a01b0319163390811790915560405181906000907f8be0079c531659141344cd1fd0a4f28419497f9722a3daafe3b4186f6b6457e0908290a3508251620000c89060129060208601906200029d565b50620000d660003362000138565b620001027f9f2df0fed2c77648de5860a4cc508cd0818c85b8b8a1ab4ceeef8d981c8956a63362000138565b600f80546001600160a01b039384166001600160a01b031991821617909155600e80549290931691161790555062000524915050565b6200014f82826200017b60201b6200263c1760201c565b600082815260016020908152604090912062000176918390620026466200018b821b17901c565b505050565b620001878282620001ab565b5050565b6000620001a2836001600160a01b0384166200024b565b90505b92915050565b6000828152602081815260408083206001600160a01b038516845290915290205460ff1662000187576000828152602081815260408083206001600160a01b03851684529091529020805460ff19166001179055620002073390565b6001600160a01b0316816001600160a01b0316837f2f8788117e7eff1d82e926ec794901d17c78024a50270940304540a733656f0d60405160405180910390a45050565b60008181526001830160205260408120546200029457508154600181810184556000848152602080822090930184905584548482528286019093526040902091909155620001a5565b506000620001a5565b828054620002ab90620004b8565b90600052602060002090601f016020900481019282620002cf57600085556200031a565b82601f10620002ea57805160ff19168380011785556200031a565b828001600101855582156200031a579182015b828111156200031a578251825591602001919060010190620002fd565b50620003289291506200032c565b5090565b5b808211156200032857600081556001016200032d565b600082601f8301126200035557600080fd5b81516001600160401b0380821115620003725762000372620004f5565b604051601f8301601f19908116603f011681019082821181831017156200039d576200039d620004f5565b81604052838152602092508683858801011115620003ba57600080fd5b600091505b83821015620003de5785820183015181830184015290820190620003bf565b83821115620003f05760008385830101525b9695505050505050565b600080600080600060a086880312156200041357600080fd5b85516001600160401b03808211156200042b57600080fd5b6200043989838a0162000343565b965060208801519150808211156200045057600080fd5b6200045e89838a0162000343565b955060408801519150808211156200047557600080fd5b50620004848882890162000343565b935050606086015162000497816200050b565b6080870151909250620004aa816200050b565b809150509295509295909350565b600181811c90821680620004cd57607f821691505b60208210811415620004ef57634e487b7160e01b600052602260045260246000fd5b50919050565b634e487b7160e01b600052604160045260246000fd5b6001600160a01b03811681146200052157600080fd5b50565b61469780620005346000396000f3fe6080604052600436106103605760003560e01c8063715018a6116101c6578063bbb2c109116100f7578063cf8fd54a11610095578063e75722301161006f578063e757223014610a1b578063e783080c14610a3b578063e985e9c514610a5b578063f2fde38b14610aa457600080fd5b8063cf8fd54a146109a7578063d5391393146109c7578063d547741f146109fb57600080fd5b8063c78b616c116100d1578063c78b616c14610922578063c87b56dd14610937578063ca15c87314610957578063cf35bdd01461097757600080fd5b8063bbb2c109146108c2578063bd15092f146108e2578063c3c5efaf1461090257600080fd5b8063a217fddf11610164578063ae73ccec1161013e578063ae73ccec1461084b578063b33712c514610860578063b88d4fde14610875578063bb19dd081461089557600080fd5b8063a217fddf146107f6578063a22cb4651461080b578063adbf37761461082b57600080fd5b806391d14854116101a057806391d148541461075d57806394bf804d146107a157806395d89b41146107c157806399f25af2146107d657600080fd5b8063715018a61461070a5780638da5cb5b1461071f5780639010d07c1461073d57600080fd5b806342842e0e116102a057806355f804b31161023e5780635c975abb116102185780635c975abb146106925780636352211e146106aa57806369df8327146106ca57806370a08231146106ea57600080fd5b806355f804b314610630578063594299ef146106505780635bf121be1461067257600080fd5b8063439766ce1161027a578063439766ce146105c85780634f558e79146105dd57806351ed8288146105fd57806354f1e1261461061057600080fd5b806342842e0e1461055b57806342966c681461057b5780634385d30f1461059b57600080fd5b80631f0c41901161030d578063248a9ca3116102e7578063248a9ca3146104bd5780632f2ff15d146104fb5780632f33df601461051b57806336568abe1461053b57600080fd5b80631f0c419014610456578063200d2ed21461047657806323b872dd1461049d57600080fd5b8063095ea7b31161033e578063095ea7b3146103f4578063099db0171461041657806317fedbc21461043657600080fd5b806301ffc9a71461036557806306fdde031461039a578063081812fc146103bc575b600080fd5b34801561037157600080fd5b50610385610380366004614243565b610ac4565b60405190151581526020015b60405180910390f35b3480156103a657600080fd5b506103af610ad5565b6040516103919190614431565b3480156103c857600080fd5b506103dc6103d73660046141e5565b610b67565b6040516001600160a01b039091168152602001610391565b34801561040057600080fd5b5061041461040f36600461419e565b610c01565b005b34801561042257600080fd5b50610385610431366004614061565b610c77565b34801561044257600080fd5b506103856104513660046141e5565b610cb7565b34801561046257600080fd5b50600f546103dc906001600160a01b031681565b34801561048257600080fd5b50601b546104909060ff1681565b6040516103919190614423565b3480156104a957600080fd5b506104146104b83660046140af565b610d35565b3480156104c957600080fd5b506104ed6104d83660046141e5565b60009081526020819052604090206001015490565b604051908152602001610391565b34801561050757600080fd5b506104146105163660046141fe565b610dc2565b34801561052757600080fd5b506104146105363660046141e5565b610de4565b34801561054757600080fd5b506104146105563660046141fe565b610f71565b34801561056757600080fd5b506104146105763660046140af565b610f93565b34801561058757600080fd5b506104146105963660046141e5565b610fae565b3480156105a757600080fd5b506105bb6105b63660046141e5565b611035565b6040516103919190614484565b3480156105d457600080fd5b5061041461113c565b3480156105e957600080fd5b506103856105f83660046141e5565b6111a0565b61041461060b3660046141e5565b6111bf565b34801561061c57600080fd5b5061041461062b366004614061565b611577565b34801561063c57600080fd5b5061041461064b36600461427d565b6115da565b34801561065c57600080fd5b5061066561166a565b60405161039191906143d4565b34801561067e57600080fd5b506104ed61068d3660046141e5565b611760565b34801561069e57600080fd5b5060095460ff16610385565b3480156106b657600080fd5b506103dc6106c53660046141e5565b61176d565b3480156106d657600080fd5b506106656106e5366004614061565b611778565b3480156106f657600080fd5b506104ed610705366004614061565b6118a9565b34801561071657600080fd5b50610414611943565b34801561072b57600080fd5b50600b546001600160a01b03166103dc565b34801561074957600080fd5b506103dc610758366004614221565b6119e7565b34801561076957600080fd5b506103856107783660046141fe565b6000918252602082815260408084206001600160a01b0393909316845291905290205460ff1690565b3480156107ad57600080fd5b506104146107bc3660046141fe565b611a06565b3480156107cd57600080fd5b506103af611bcf565b3480156107e257600080fd5b506104ed6107f13660046141e5565b611bde565b34801561080257600080fd5b506104ed600081565b34801561081757600080fd5b50610414610826366004614167565b611beb565b34801561083757600080fd5b50610414610846366004614061565b611cb0565b34801561085757600080fd5b50610665611d13565b34801561086c57600080fd5b50610414611dee565b34801561088157600080fd5b506104146108903660046140eb565b611e50565b3480156108a157600080fd5b506104ed6108b03660046141e5565b60106020526000908152604090205481565b3480156108ce57600080fd5b506104146108dd366004614221565b611ed8565b3480156108ee57600080fd5b506104146108fd366004614061565b612089565b34801561090e57600080fd5b5061038561091d3660046141e5565b612105565b34801561092e57600080fd5b506104ed612146565b34801561094357600080fd5b506103af6109523660046141e5565b612157565b34801561096357600080fd5b506104ed6109723660046141e5565b612162565b34801561098357600080fd5b506109976109923660046141e5565b612179565b6040516103919493929190614444565b3480156109b357600080fd5b506104146109c2366004614221565b612250565b3480156109d357600080fd5b506104ed7f9f2df0fed2c77648de5860a4cc508cd0818c85b8b8a1ab4ceeef8d981c8956a681565b348015610a0757600080fd5b50610414610a163660046141fe565b612425565b348015610a2757600080fd5b506104ed610a363660046141e5565b61242f565b348015610a4757600080fd5b50610414610a563660046142cb565b6124ac565b348015610a6757600080fd5b50610385610a7636600461407c565b6001600160a01b03918216600090815260076020908152604080832093909416825291909152205460ff1690565b348015610ab057600080fd5b50610414610abf366004614061565b61250a565b6000610acf8261265b565b92915050565b606060028054610ae49061457e565b80601f0160208091040260200160405190810160405280929190818152602001828054610b109061457e565b8015610b5d5780601f10610b3257610100808354040283529160200191610b5d565b820191906000526020600020905b815481529060010190602001808311610b4057829003601f168201915b5050505050905090565b6000818152600460205260408120546001600160a01b0316610be55760405162461bcd60e51b815260206004820152602c60248201527f4552433732313a20617070726f76656420717565727920666f72206e6f6e657860448201526b34b9ba32b73a103a37b5b2b760a11b60648201526084015b60405180910390fd5b506000908152600660205260409020546001600160a01b031690565b610c0a81610cb7565b158015610c1d5750610c1b81612105565b155b610c695760405162461bcd60e51b815260206004820152601460248201527f54686973204e465420697320746f2074726164650000000000000000000000006044820152606401610bdc565b610c73828261269b565b5050565b6001600160a01b03811660009081527f0781d7cac9c378efa22a7481e4d4d29704a680ddf504b3bc50b517700ee11e6c602052604081205460ff16610acf565b600e54604051630bff6de160e11b8152600481018390526000916001600160a01b0316906317fedbc2906024015b60206040518083038186803b158015610cfd57600080fd5b505afa158015610d11573d6000803e3d6000fd5b505050506040513d601f19601f82011682018060405250810190610acf91906141c8565b610d40335b826127ac565b610db25760405162461bcd60e51b815260206004820152603160248201527f4552433732313a207472616e736665722063616c6c6572206973206e6f74206f60448201527f776e6572206e6f7220617070726f7665640000000000000000000000000000006064820152608401610bdc565b610dbd8383836128a3565b505050565b610dcc8282612a62565b6000828152600160205260409020610dbd9082612646565b610def600c82612af1565b610e3b5760405162461bcd60e51b815260206004820152601260248201527f4e6f6e206578697374616e7420746f6b656e00000000000000000000000000006044820152606401610bdc565b610e448161176d565b6001600160a01b0316336001600160a01b031614610e9b5760405162461bcd60e51b815260206004820152601460248201527324ba1034b9903737ba103cb7bab9103a37b5b2b760611b6044820152606401610bdc565b33610eda5760405162461bcd60e51b815260206004820152600f60248201526e696e76616c6964204164647265737360881b6044820152606401610bdc565b610ee5600082610c01565b600e546040516301799efb60e51b8152600481018390526001600160a01b0390911690632f33df6090602401600060405180830381600087803b158015610f2b57600080fd5b505af1158015610f3f573d6000803e3d6000fd5b50505050610f5781600c612b0990919063ffffffff16565b50336000908152601160205260409020610c739082612b15565b610f7b8282612b21565b6000828152600160205260409020610dbd9082612ba9565b610dbd83838360405180602001604052806000815250611e50565b610fb733610d3a565b6110295760405162461bcd60e51b815260206004820152603060248201527f4552433732314275726e61626c653a2063616c6c6572206973206e6f74206f7760448201527f6e6572206e6f7220617070726f766564000000000000000000000000000000006064820152608401610bdc565b61103281612bbe565b50565b61103d613e9f565b600082815260156020526040908190208151608081019092528054829082906110659061457e565b80601f01602080910402602001604051908101604052809291908181526020018280546110919061457e565b80156110de5780601f106110b3576101008083540402835291602001916110de565b820191906000526020600020905b8154815290600101906020018083116110c157829003601f168201915b50505091835250506001828101546001600160a01b0316602083015260028301546040830152600383015460609092019160ff16908111156111225761112261460e565b60018111156111335761113361460e565b90525092915050565b600b546001600160a01b031633146111965760405162461bcd60e51b815260206004820181905260248201527f4f776e61626c653a2063616c6c6572206973206e6f7420746865206f776e65726044820152606401610bdc565b61119e612c21565b565b6000818152600460205260408120546001600160a01b03161515610acf565b60095460ff16156112055760405162461bcd60e51b815260206004820152601060248201526f14185d5cd8589b194e881c185d5cd95960821b6044820152606401610bdc565b611210600c82612af1565b61125c5760405162461bcd60e51b815260206004820152601260248201527f4e6f6e206578697374616e7420746f6b656e00000000000000000000000000006044820152606401610bdc565b6112658161176d565b6001600160a01b0316336001600160a01b031614156112c65760405162461bcd60e51b815260206004820152601060248201527f497420697320796f757220746f6b656e000000000000000000000000000000006044820152606401610bdc565b336113055760405162461bcd60e51b815260206004820152600f60248201526e696e76616c6964204164647265737360881b6044820152606401610bdc565b611310600c82612cb9565b341461135e5760405162461bcd60e51b815260206004820152600d60248201527f4e6f7420746865207072696365000000000000000000000000000000000000006044820152606401610bdc565b600e546040516301799efb60e51b8152600481018390526001600160a01b0390911690632f33df6090602401600060405180830381600087803b1580156113a457600080fd5b505af11580156113b8573d6000803e3d6000fd5b505050506113d081600c612b0990919063ffffffff16565b5061140181601160006113e28561176d565b6001600160a01b03168152602081019190915260400160002090612b15565b5061140b8161176d565b6001600160a01b03166108fc6064611424346061614505565b61142e91906144f1565b6040518115909202916000818181858888f19350505050158015611456573d6000803e3d6000fd5b50600f546001600160a01b03166108fc6064611473346003614505565b61147d91906144f1565b6040518115909202916000818181858888f193505050501580156114a5573d6000803e3d6000fd5b507f020601e739a0890fac5bb2959046acfac77ed242afbe97cd3d8f00e4c414a25434826114d28461176d565b6040805193845260208401929092526001600160a01b03169082015233606082015260800160405180910390a1306342842e0e61150e8361176d565b6040516001600160e01b031960e084901b1681526001600160a01b03909116600482015233602482015260448101849052606401600060405180830381600087803b15801561155c57600080fd5b505af1158015611570573d6000803e3d6000fd5b5050505050565b6115a17f9f2df0fed2c77648de5860a4cc508cd0818c85b8b8a1ab4ceeef8d981c8956a682612425565b60405133906001600160a01b038316907f56692a161ffec953ddf9def93b958ea8d1ec95e21b80870c66be91a4374dc4e390600090a350565b6115e5600033610778565b6116575760405162461bcd60e51b815260206004820152602e60248201527f4552433732313a206d75737420686176652061646d696e20726f6c6520746f2060448201527f6368616e676520626173655572690000000000000000000000000000000000006064820152608401610bdc565b8051610c73906012906020840190613ee0565b60606000611678600c612cc5565b67ffffffffffffffff81111561169057611690614650565b6040519080825280602002602001820160405280156116d557816020015b60408051808201909152600080825260208201528152602001906001900390816116ae5790505b50905060006116e4600c612cc5565b90505b801561175a576000806116fb600c84612ccf565b915091506040518060400160405280838152602001828152508484611720600c612cc5565b61172a9190614524565b8151811061173a5761173a61463a565b60200260200101819052505050808061175290614567565b9150506116e7565b50919050565b6000610acf601983612cb9565b6000610acf82612ce7565b6001600160a01b03811660009081526011602052604081206060919061179d90612cc5565b67ffffffffffffffff8111156117b5576117b5614650565b6040519080825280602002602001820160405280156117fa57816020015b60408051808201909152600080825260208201528152602001906001900390816117d35790505b50905060005b6001600160a01b038416600090815260116020526040902061182190612cc5565b8110156118a2576001600160a01b038416600090815260116020526040812061184a9083612d72565b90506000611859600c83612cb9565b90506040518060400160405280838152602001828152508484815181106118825761188261463a565b60200260200101819052505050808061189a906145b3565b915050611800565b5092915050565b60006001600160a01b0382166119275760405162461bcd60e51b815260206004820152602a60248201527f4552433732313a2062616c616e636520717565727920666f7220746865207a6560448201527f726f2061646472657373000000000000000000000000000000000000000000006064820152608401610bdc565b506001600160a01b031660009081526005602052604090205490565b600b546001600160a01b0316331461199d5760405162461bcd60e51b815260206004820181905260248201527f4f776e61626c653a2063616c6c6572206973206e6f7420746865206f776e65726044820152606401610bdc565b600b546040516000916001600160a01b0316907f8be0079c531659141344cd1fd0a4f28419497f9722a3daafe3b4186f6b6457e0908390a3600b80546001600160a01b0319169055565b60008281526001602052604081206119ff9083612d72565b9392505050565b60095460ff1615611a4c5760405162461bcd60e51b815260206004820152601060248201526f14185d5cd8589b194e881c185d5cd95960821b6044820152606401610bdc565b611a767f9f2df0fed2c77648de5860a4cc508cd0818c85b8b8a1ab4ceeef8d981c8956a633610778565b611ac25760405162461bcd60e51b815260206004820152601d60248201527f6d7573742068617665206d696e74657220726f6c6520746f206d696e740000006044820152606401610bdc565b6000611acd60145490565b9050611add601480546001019055565b611ae78282612d7e565b600083815260156020526040902060038101805460ff199081168255601b8054821660019081179091558254909116179055611b2560178584612d98565b50611b3260198386612d98565b50611bc982826000018054611b469061457e565b80601f0160208091040260200160405190810160405280929190818152602001828054611b729061457e565b8015611bbf5780601f10611b9457610100808354040283529160200191611bbf565b820191906000526020600020905b815481529060010190602001808311611ba257829003601f168201915b5050505050612da5565b50505050565b606060038054610ae49061457e565b6000610acf601783612cb9565b6001600160a01b038216331415611c445760405162461bcd60e51b815260206004820152601960248201527f4552433732313a20617070726f766520746f2063616c6c6572000000000000006044820152606401610bdc565b3360008181526007602090815260408083206001600160a01b03871680855290835292819020805460ff191686151590811790915590519081529192917f17307eab39ab6107e8899845ad3d59bd9653f200f220920489ca2b5937696c31910160405180910390a35050565b611cda7f9f2df0fed2c77648de5860a4cc508cd0818c85b8b8a1ab4ceeef8d981c8956a682610dc2565b60405133906001600160a01b038316907f0be6ab9784c7401fafb73f7bc47bc67cc4ef8c47a60ad3cb66d1de0353a0784c90600090a350565b60606000611d21600c612cc5565b67ffffffffffffffff811115611d3957611d39614650565b604051908082528060200260200182016040528015611d7e57816020015b6040805180820190915260008082526020820152815260200190600190039081611d575790505b50905060005b611d8e600c612cc5565b81101561175a57600080611da3600c84612ccf565b91509150604051806040016040528083815260200182815250848481518110611dce57611dce61463a565b602002602001018190525050508080611de6906145b3565b915050611d84565b600b546001600160a01b03163314611e485760405162461bcd60e51b815260206004820181905260248201527f4f776e61626c653a2063616c6c6572206973206e6f7420746865206f776e65726044820152606401610bdc565b61119e612e4e565b611e5a33836127ac565b611ecc5760405162461bcd60e51b815260206004820152603160248201527f4552433732313a207472616e736665722063616c6c6572206973206e6f74206f60448201527f776e6572206e6f7220617070726f7665640000000000000000000000000000006064820152608401610bdc565b611bc984848484612ed1565b81611ee4600c82612af1565b611f305760405162461bcd60e51b815260206004820152601460248201527f6c697374696e6720646f65736e742065786973740000000000000000000000006044820152606401610bdc565b60095460ff1615611f765760405162461bcd60e51b815260206004820152601060248201526f14185d5cd8589b194e881c185d5cd95960821b6044820152606401610bdc565b611f7f8361176d565b6001600160a01b0316336001600160a01b031614611fd65760405162461bcd60e51b815260206004820152601460248201527324ba1034b9903737ba103cb7bab9103a37b5b2b760611b6044820152606401610bdc565b336120155760405162461bcd60e51b815260206004820152600f60248201526e696e76616c6964204164647265737360881b6044820152606401610bdc565b600e5460405163bbb2c10960e01b815260048101859052602481018490526001600160a01b039091169063bbb2c10990604401600060405180830381600087803b15801561206257600080fd5b505af1158015612076573d6000803e3d6000fd5b50611bc99250600c915085905084612d98565b600b546001600160a01b031633146120e35760405162461bcd60e51b815260206004820181905260248201527f4f776e61626c653a2063616c6c6572206973206e6f7420746865206f776e65726044820152606401610bdc565b600e80546001600160a01b0319166001600160a01b0392909216919091179055565b600e5460008281526010602052604080822054905163c3c5efaf60e01b815291926001600160a01b03169163c3c5efaf91610ce59160040190815260200190565b6000612152600c612cc5565b905090565b6060610acf82612f4f565b6000818152600160205260408120610acf90612cc5565b600a818154811061218957600080fd5b90600052602060002090600402016000915090508060000180546121ac9061457e565b80601f01602080910402602001604051908101604052809291908181526020018280546121d89061457e565b80156122255780601f106121fa57610100808354040283529160200191612225565b820191906000526020600020905b81548152906001019060200180831161220857829003601f168201915b505050506001830154600284015460039094015492936001600160a01b039091169290915060ff1684565b60095460ff16156122965760405162461bcd60e51b815260206004820152601060248201526f14185d5cd8589b194e881c185d5cd95960821b6044820152606401610bdc565b6122a1600c83612af1565b156122ee5760405162461bcd60e51b815260206004820152601660248201527f6c697374696e6720616c726561647920657869737473000000000000000000006044820152606401610bdc565b6122f78261176d565b6001600160a01b0316336001600160a01b03161461234e5760405162461bcd60e51b815260206004820152601460248201527324ba1034b9903737ba103cb7bab9103a37b5b2b760611b6044820152606401610bdc565b3361238d5760405162461bcd60e51b815260206004820152600f60248201526e696e76616c6964204164647265737360881b6044820152606401610bdc565b6123973083610c01565b600e546040516367c7eaa560e11b815260048101849052602481018390526001600160a01b039091169063cf8fd54a90604401600060405180830381600087803b1580156123e457600080fd5b505af11580156123f8573d6000803e3d6000fd5b5061240b9250600c915084905083612d98565b50336000908152601160205260409020610dbd90836130cd565b610f7b82826130d9565b600e54604051630e75722360e41b8152600481018390526000916001600160a01b03169063e75722309060240160206040518083038186803b15801561247457600080fd5b505afa158015612488573d6000803e3d6000fd5b505050506040513d601f19601f82011682018060405250810190610acf91906142b2565b600081815260156020908152604090912060028101859055835190916124d6918391860190613ee0565b506001810180546001600160a01b03191633179055600301805460ff199081168255601b8054821690558154169055505050565b600b546001600160a01b031633146125645760405162461bcd60e51b815260206004820181905260248201527f4f776e61626c653a2063616c6c6572206973206e6f7420746865206f776e65726044820152606401610bdc565b6001600160a01b0381166125e05760405162461bcd60e51b815260206004820152602660248201527f4f776e61626c653a206e6577206f776e657220697320746865207a65726f206160448201527f64647265737300000000000000000000000000000000000000000000000000006064820152608401610bdc565b600b546040516001600160a01b038084169216907f8be0079c531659141344cd1fd0a4f28419497f9722a3daafe3b4186f6b6457e090600090a3600b80546001600160a01b0319166001600160a01b0392909216919091179055565b610c738282613166565b60006119ff836001600160a01b038416613204565b60006001600160e01b031982166380ac58cd60e01b148061268c57506001600160e01b03198216635b5e139f60e01b145b80610acf5750610acf82613253565b60006126a682612ce7565b9050806001600160a01b0316836001600160a01b031614156127145760405162461bcd60e51b815260206004820152602160248201527f4552433732313a20617070726f76616c20746f2063757272656e74206f776e656044820152603960f91b6064820152608401610bdc565b336001600160a01b038216148061273057506127308133610a76565b6127a25760405162461bcd60e51b815260206004820152603860248201527f4552433732313a20617070726f76652063616c6c6572206973206e6f74206f7760448201527f6e6572206e6f7220617070726f76656420666f7220616c6c00000000000000006064820152608401610bdc565b610dbd8383613278565b6000818152600460205260408120546001600160a01b03166128255760405162461bcd60e51b815260206004820152602c60248201527f4552433732313a206f70657261746f7220717565727920666f72206e6f6e657860448201526b34b9ba32b73a103a37b5b2b760a11b6064820152608401610bdc565b600061283083612ce7565b9050806001600160a01b0316846001600160a01b0316148061286b5750836001600160a01b031661286084610b67565b6001600160a01b0316145b8061289b57506001600160a01b0380821660009081526007602090815260408083209388168352929052205460ff165b949350505050565b826001600160a01b03166128b682612ce7565b6001600160a01b0316146129325760405162461bcd60e51b815260206004820152602960248201527f4552433732313a207472616e73666572206f6620746f6b656e2074686174206960448201527f73206e6f74206f776e00000000000000000000000000000000000000000000006064820152608401610bdc565b6001600160a01b0382166129945760405162461bcd60e51b8152602060048201526024808201527f4552433732313a207472616e7366657220746f20746865207a65726f206164646044820152637265737360e01b6064820152608401610bdc565b61299f8383836132e6565b6129aa600082613278565b6001600160a01b03831660009081526005602052604081208054600192906129d3908490614524565b90915550506001600160a01b0382166000908152600560205260408120805460019290612a019084906144d9565b909155505060008181526004602052604080822080546001600160a01b0319166001600160a01b0386811691821790925591518493918716917fddf252ad1be2c89b69c2b068fc378daa952ba7f163c4a11628f55a4df523b3ef91a4505050565b600082815260208190526040902060010154612a7f905b33610778565b61263c5760405162461bcd60e51b815260206004820152602f60248201527f416363657373436f6e74726f6c3a2073656e646572206d75737420626520616e60448201527f2061646d696e20746f206772616e7400000000000000000000000000000000006064820152608401610bdc565b600081815260018301602052604081205415156119ff565b60006119ff83836132f1565b60006119ff8383613402565b6001600160a01b0381163314612b9f5760405162461bcd60e51b815260206004820152602f60248201527f416363657373436f6e74726f6c3a2063616e206f6e6c792072656e6f756e636560448201527f20726f6c657320666f722073656c6600000000000000000000000000000000006064820152608401610bdc565b610c7382826134eb565b60006119ff836001600160a01b038416613402565b600b546001600160a01b03163314612c185760405162461bcd60e51b815260206004820181905260248201527f4f776e61626c653a2063616c6c6572206973206e6f7420746865206f776e65726044820152606401610bdc565b6110328161356a565b60095460ff1615612c675760405162461bcd60e51b815260206004820152601060248201526f14185d5cd8589b194e881c185d5cd95960821b6044820152606401610bdc565b6009805460ff191660011790557f62e78cea01bee320cd4e420270b5ea74000d11b0c9f74754ebdbfc544b05a258612c9c3390565b6040516001600160a01b03909116815260200160405180910390a1565b60006119ff83836135aa565b6000610acf825490565b600080612cdc84846135ec565b915091509250929050565b6000818152600460205260408120546001600160a01b031680610acf5760405162461bcd60e51b815260206004820152602960248201527f4552433732313a206f776e657220717565727920666f72206e6f6e657869737460448201527f656e7420746f6b656e00000000000000000000000000000000000000000000006064820152608401610bdc565b60006119ff8383613689565b610c7382826040518060200160405280600081525061370f565b600061289b84848461378d565b6000828152600460205260409020546001600160a01b0316612e2f5760405162461bcd60e51b815260206004820152602e60248201527f45524337323155524953746f726167653a2055524920736574206f66206e6f6e60448201527f6578697374656e7420746f6b656e0000000000000000000000000000000000006064820152608401610bdc565b60008281526008602090815260409091208251610dbd92840190613ee0565b60095460ff16612ea05760405162461bcd60e51b815260206004820152601460248201527f5061757361626c653a206e6f74207061757365640000000000000000000000006044820152606401610bdc565b6009805460ff191690557f5db9ee0a495bf2e6ff9c91a7834c1ba4fdd244a5e8aa4e537bd38aeae4b073aa33612c9c565b612edc8484846128a3565b612ee88484848461382e565b611bc95760405162461bcd60e51b815260206004820152603260248201527f4552433732313a207472616e7366657220746f206e6f6e20455243373231526560448201527131b2b4bb32b91034b6b83632b6b2b73a32b960711b6064820152608401610bdc565b6000818152600460205260409020546060906001600160a01b0316612fdc5760405162461bcd60e51b815260206004820152603160248201527f45524337323155524953746f726167653a2055524920717565727920666f722060448201527f6e6f6e6578697374656e7420746f6b656e0000000000000000000000000000006064820152608401610bdc565b60008281526008602052604081208054612ff59061457e565b80601f01602080910402602001604051908101604052809291908181526020018280546130219061457e565b801561306e5780601f106130435761010080835404028352916020019161306e565b820191906000526020600020905b81548152906001019060200180831161305157829003601f168201915b50505050509050600061307f613986565b9050805160001415613092575092915050565b8151156130c45780826040516020016130ac929190614369565b60405160208183030381529060405292505050919050565b61289b84613995565b60006119ff8383613204565b6000828152602081905260409020600101546130f490612a79565b612b9f5760405162461bcd60e51b815260206004820152603060248201527f416363657373436f6e74726f6c3a2073656e646572206d75737420626520616e60448201527f2061646d696e20746f207265766f6b65000000000000000000000000000000006064820152608401610bdc565b6000828152602081815260408083206001600160a01b038516845290915290205460ff16610c73576000828152602081815260408083206001600160a01b03851684529091529020805460ff191660011790556131c03390565b6001600160a01b0316816001600160a01b0316837f2f8788117e7eff1d82e926ec794901d17c78024a50270940304540a733656f0d60405160405180910390a45050565b600081815260018301602052604081205461324b57508154600181810184556000848152602080822090930184905584548482528286019093526040902091909155610acf565b506000610acf565b60006001600160e01b03198216635a05180f60e01b1480610acf5750610acf82613a7d565b600081815260066020526040902080546001600160a01b0319166001600160a01b03841690811790915581906132ad82612ce7565b6001600160a01b03167f8c5be1e5ebec7d5bd14f71427d1e84f3dd0314c0f7b2291e5b200ac8c7c3b92560405160405180910390a45050565b610dbd838383613ab2565b600081815260018301602052604081205480156133f8576000613315600183614524565b855490915060009061332990600190614524565b905060008660000182815481106133425761334261463a565b90600052602060002090600202019050808760000184815481106133685761336861463a565b600091825260209091208254600290920201908155600191820154908201556133929084906144d9565b8154600090815260018901602052604090205586548790806133b6576133b6614624565b6000828152602080822060026000199094019384020182815560019081018390559290935588815289820190925260408220919091559450610acf9350505050565b6000915050610acf565b600081815260018301602052604081205480156133f8576000613426600183614524565b855490915060009061343a90600190614524565b905060008660000182815481106134535761345361463a565b90600052602060002001549050808760000184815481106134765761347661463a565b60009182526020909120015561348d8360016144d9565b600082815260018901602052604090205586548790806134af576134af614624565b60019003818190600052602060002001600090559055866001016000878152602001908152602001600020600090556001945050505050610acf565b6000828152602081815260408083206001600160a01b038516845290915290205460ff1615610c73576000828152602081815260408083206001600160a01b0385168085529252808320805460ff1916905551339285917ff6391f5c32d9c69d2a47ea670b442974b53935d1edc7fd64eb21e047a839171b9190a45050565b61357381613b2b565b6000818152600860205260409020805461358c9061457e565b15905061103257600081815260086020526040812061103291613f64565b60006119ff83836040518060400160405280601e81526020017f456e756d657261626c654d61703a206e6f6e6578697374656e74206b65790000815250613bd2565b81546000908190831061364c5760405162461bcd60e51b815260206004820152602260248201527f456e756d657261626c654d61703a20696e646578206f7574206f6620626f756e604482015261647360f01b6064820152608401610bdc565b60008460000184815481106136635761366361463a565b906000526020600020906002020190508060000154816001015492509250509250929050565b815460009082106136e75760405162461bcd60e51b815260206004820152602260248201527f456e756d657261626c655365743a20696e646578206f7574206f6620626f756e604482015261647360f01b6064820152608401610bdc565b8260000182815481106136fc576136fc61463a565b9060005260206000200154905092915050565b6137198383613c3b565b613726600084848461382e565b610dbd5760405162461bcd60e51b815260206004820152603260248201527f4552433732313a207472616e7366657220746f206e6f6e20455243373231526560448201527131b2b4bb32b91034b6b83632b6b2b73a32b960711b6064820152608401610bdc565b6000828152600184016020526040812054806137f25750506040805180820182528381526020808201848152865460018181018955600089815284812095516002909302909501918255915190820155865486845281880190925292909120556119ff565b82856137ff600184614524565b8154811061380f5761380f61463a565b90600052602060002090600202016001018190555060009150506119ff565b60006001600160a01b0384163b1561397b57604051630a85bd0160e11b81526001600160a01b0385169063150b7a0290613872903390899088908890600401614398565b602060405180830381600087803b15801561388c57600080fd5b505af19250505080156138bc575060408051601f3d908101601f191682019092526138b991810190614260565b60015b613961573d8080156138ea576040519150601f19603f3d011682016040523d82523d6000602084013e6138ef565b606091505b5080516139595760405162461bcd60e51b815260206004820152603260248201527f4552433732313a207472616e7366657220746f206e6f6e20455243373231526560448201527131b2b4bb32b91034b6b83632b6b2b73a32b960711b6064820152608401610bdc565b805181602001fd5b6001600160e01b031916630a85bd0160e11b14905061289b565b506001949350505050565b606060128054610ae49061457e565b6000818152600460205260409020546060906001600160a01b0316613a225760405162461bcd60e51b815260206004820152602f60248201527f4552433732314d657461646174613a2055524920717565727920666f72206e6f60448201527f6e6578697374656e7420746f6b656e00000000000000000000000000000000006064820152608401610bdc565b6000613a2c613986565b90506000815111613a4c57604051806020016040528060008152506119ff565b80613a5684613d89565b604051602001613a67929190614369565b6040516020818303038152906040529392505050565b60006001600160e01b03198216637965db0b60e01b1480610acf57506301ffc9a760e01b6001600160e01b0319831614610acf565b60095460ff1615610dbd5760405162461bcd60e51b815260206004820152602b60248201527f4552433732315061757361626c653a20746f6b656e207472616e73666572207760448201527f68696c65207061757365640000000000000000000000000000000000000000006064820152608401610bdc565b6000613b3682612ce7565b9050613b44816000846132e6565b613b4f600083613278565b6001600160a01b0381166000908152600560205260408120805460019290613b78908490614524565b909155505060008281526004602052604080822080546001600160a01b0319169055518391906001600160a01b038416907fddf252ad1be2c89b69c2b068fc378daa952ba7f163c4a11628f55a4df523b3ef908390a45050565b60008281526001840160205260408120548281613c025760405162461bcd60e51b8152600401610bdc9190614431565b5084613c0f600183614524565b81548110613c1f57613c1f61463a565b9060005260206000209060020201600101549150509392505050565b6001600160a01b038216613c915760405162461bcd60e51b815260206004820181905260248201527f4552433732313a206d696e7420746f20746865207a65726f20616464726573736044820152606401610bdc565b6000818152600460205260409020546001600160a01b031615613cf65760405162461bcd60e51b815260206004820152601c60248201527f4552433732313a20746f6b656e20616c7265616479206d696e746564000000006044820152606401610bdc565b613d02600083836132e6565b6001600160a01b0382166000908152600560205260408120805460019290613d2b9084906144d9565b909155505060008181526004602052604080822080546001600160a01b0319166001600160a01b03861690811790915590518392907fddf252ad1be2c89b69c2b068fc378daa952ba7f163c4a11628f55a4df523b3ef908290a45050565b606081613dad5750506040805180820190915260018152600360fc1b602082015290565b8160005b8115613dd75780613dc1816145b3565b9150613dd09050600a836144f1565b9150613db1565b60008167ffffffffffffffff811115613df257613df2614650565b6040519080825280601f01601f191660200182016040528015613e1c576020820181803683370190505b5090505b841561289b57613e31600183614524565b9150613e3e600a866145ce565b613e499060306144d9565b60f81b818381518110613e5e57613e5e61463a565b60200101907effffffffffffffffffffffffffffffffffffffffffffffffffffffffffffff1916908160001a905350613e98600a866144f1565b9450613e20565b60405180608001604052806060815260200160006001600160a01b031681526020016000815260200160006001811115613edb57613edb61460e565b905290565b828054613eec9061457e565b90600052602060002090601f016020900481019282613f0e5760008555613f54565b82601f10613f2757805160ff1916838001178555613f54565b82800160010185558215613f54579182015b82811115613f54578251825591602001919060010190613f39565b50613f60929150613f9a565b5090565b508054613f709061457e565b6000825580601f10613f80575050565b601f01602090049060005260206000209081019061103291905b5b80821115613f605760008155600101613f9b565b600067ffffffffffffffff80841115613fca57613fca614650565b604051601f8501601f19908116603f01168101908282118183101715613ff257613ff2614650565b8160405280935085815286868601111561400b57600080fd5b858560208301376000602087830101525050509392505050565b80356001600160a01b038116811461403c57600080fd5b919050565b600082601f83011261405257600080fd5b6119ff83833560208501613faf565b60006020828403121561407357600080fd5b6119ff82614025565b6000806040838503121561408f57600080fd5b61409883614025565b91506140a660208401614025565b90509250929050565b6000806000606084860312156140c457600080fd5b6140cd84614025565b92506140db60208501614025565b9150604084013590509250925092565b6000806000806080858703121561410157600080fd5b61410a85614025565b935061411860208601614025565b925060408501359150606085013567ffffffffffffffff81111561413b57600080fd5b8501601f8101871361414c57600080fd5b61415b87823560208401613faf565b91505092959194509250565b6000806040838503121561417a57600080fd5b61418383614025565b9150602083013561419381614666565b809150509250929050565b600080604083850312156141b157600080fd5b6141ba83614025565b946020939093013593505050565b6000602082840312156141da57600080fd5b81516119ff81614666565b6000602082840312156141f757600080fd5b5035919050565b6000806040838503121561421157600080fd5b823591506140a660208401614025565b6000806040838503121561423457600080fd5b50508035926020909101359150565b60006020828403121561425557600080fd5b81356119ff81614674565b60006020828403121561427257600080fd5b81516119ff81614674565b60006020828403121561428f57600080fd5b813567ffffffffffffffff8111156142a657600080fd5b61289b84828501614041565b6000602082840312156142c457600080fd5b5051919050565b6000806000606084860312156142e057600080fd5b83359250602084013567ffffffffffffffff8111156142fe57600080fd5b61430a86828701614041565b925050604084013590509250925092565b6000815180845261433381602086016020860161453b565b601f01601f19169290920160200192915050565b6002811061436557634e487b7160e01b600052602160045260246000fd5b9052565b6000835161437b81846020880161453b565b83519083019061438f81836020880161453b565b01949350505050565b60006001600160a01b038087168352808616602084015250836040830152608060608301526143ca608083018461431b565b9695505050505050565b602080825282518282018190526000919060409081850190868401855b82811015614416578151805185528601518685015292840192908501906001016143f1565b5091979650505050505050565b60208101610acf8284614347565b6020815260006119ff602083018461431b565b608081526000614457608083018761431b565b90506001600160a01b038516602083015283604083015261447b6060830184614347565b95945050505050565b6020815260008251608060208401526144a060a084018261431b565b90506001600160a01b0360208501511660408401526040840151606084015260608401516144d16080850182614347565b509392505050565b600082198211156144ec576144ec6145e2565b500190565b600082614500576145006145f8565b500490565b600081600019048311821515161561451f5761451f6145e2565b500290565b600082821015614536576145366145e2565b500390565b60005b8381101561455657818101518382015260200161453e565b83811115611bc95750506000910152565b600081614576576145766145e2565b506000190190565b600181811c9082168061459257607f821691505b6020821081141561175a57634e487b7160e01b600052602260045260246000fd5b60006000198214156145c7576145c76145e2565b5060010190565b6000826145dd576145dd6145f8565b500690565b634e487b7160e01b600052601160045260246000fd5b634e487b7160e01b600052601260045260246000fd5b634e487b7160e01b600052602160045260246000fd5b634e487b7160e01b600052603160045260246000fd5b634e487b7160e01b600052603260045260246000fd5b634e487b7160e01b600052604160045260246000fd5b801515811461103257600080fd5b6001600160e01b03198116811461103257600080fdfea164736f6c6343000805000a",
  "linkReferences": {},
  "deployedLinkReferences": {}
}