{
  "_format": "hh-sol-artifact-1",
  "contractName": "Asset",
  "sourceName": "contracts/Asset.sol",
  "abi": [
    {
      "inputs": [
        {
          "internalType": "string",
          "name": "name",
          "type": "string"
        },
        {
          "internalType": "string",
          "name": "symbol",
          "type": "string"
        },
        {
          "internalType": "string",
          "name": "metadataBaseURI",
          "type": "string"
        },
        {
          "internalType": "address payable",
          "name": "casimir",
          "type": "address"
        },
        {
          "internalType": "address",
          "name": "_engine",
          "type": "address"
        }
      ],
      "stateMutability": "nonpayable",
      "type": "constructor"
    },
    {
      "anonymous": false,
      "inputs": [
        {
          "indexed": true,
          "internalType": "address",
          "name": "owner",
          "type": "address"
        },
        {
          "indexed": true,
          "internalType": "address",
          "name": "approved",
          "type": "address"
        },
        {
          "indexed": true,
          "internalType": "uint256",
          "name": "tokenId",
          "type": "uint256"
        }
      ],
      "name": "Approval",
      "type": "event"
    },
    {
      "anonymous": false,
      "inputs": [
        {
          "indexed": true,
          "internalType": "address",
          "name": "owner",
          "type": "address"
        },
        {
          "indexed": true,
          "internalType": "address",
          "name": "operator",
          "type": "address"
        },
        {
          "indexed": false,
          "internalType": "bool",
          "name": "approved",
          "type": "bool"
        }
      ],
      "name": "ApprovalForAll",
      "type": "event"
    },
    {
      "anonymous": false,
      "inputs": [
        {
          "indexed": true,
          "internalType": "address",
          "name": "beneficiary",
          "type": "address"
        },
        {
          "indexed": true,
          "internalType": "address",
          "name": "caller",
          "type": "address"
        }
      ],
      "name": "MinterRoleGranted",
      "type": "event"
    },
    {
      "anonymous": false,
      "inputs": [
        {
          "indexed": true,
          "internalType": "address",
          "name": "beneficiary",
          "type": "address"
        },
        {
          "indexed": true,
          "internalType": "address",
          "name": "caller",
          "type": "address"
        }
      ],
      "name": "MinterRoleRemoved",
      "type": "event"
    },
    {
      "anonymous": false,
      "inputs": [
        {
          "indexed": true,
          "internalType": "address",
          "name": "previousOwner",
          "type": "address"
        },
        {
          "indexed": true,
          "internalType": "address",
          "name": "newOwner",
          "type": "address"
        }
      ],
      "name": "OwnershipTransferred",
      "type": "event"
    },
    {
      "anonymous": false,
      "inputs": [
        {
          "indexed": false,
          "internalType": "address",
          "name": "account",
          "type": "address"
        }
      ],
      "name": "Paused",
      "type": "event"
    },
    {
      "anonymous": false,
      "inputs": [
        {
          "indexed": true,
          "internalType": "bytes32",
          "name": "role",
          "type": "bytes32"
        },
        {
          "indexed": true,
          "internalType": "bytes32",
          "name": "previousAdminRole",
          "type": "bytes32"
        },
        {
          "indexed": true,
          "internalType": "bytes32",
          "name": "newAdminRole",
          "type": "bytes32"
        }
      ],
      "name": "RoleAdminChanged",
      "type": "event"
    },
    {
      "anonymous": false,
      "inputs": [
        {
          "indexed": true,
          "internalType": "bytes32",
          "name": "role",
          "type": "bytes32"
        },
        {
          "indexed": true,
          "internalType": "address",
          "name": "account",
          "type": "address"
        },
        {
          "indexed": true,
          "internalType": "address",
          "name": "sender",
          "type": "address"
        }
      ],
      "name": "RoleGranted",
      "type": "event"
    },
    {
      "anonymous": false,
      "inputs": [
        {
          "indexed": true,
          "internalType": "bytes32",
          "name": "role",
          "type": "bytes32"
        },
        {
          "indexed": true,
          "internalType": "address",
          "name": "account",
          "type": "address"
        },
        {
          "indexed": true,
          "internalType": "address",
          "name": "sender",
          "type": "address"
        }
      ],
      "name": "RoleRevoked",
      "type": "event"
    },
    {
      "anonymous": false,
      "inputs": [
        {
          "indexed": false,
          "internalType": "uint256",
          "name": "price",
          "type": "uint256"
        },
        {
          "indexed": false,
          "internalType": "uint256",
          "name": "id",
          "type": "uint256"
        },
        {
          "indexed": false,
          "internalType": "address",
          "name": "seller",
          "type": "address"
        },
        {
          "indexed": false,
          "internalType": "address",
          "name": "buyer",
          "type": "address"
        }
      ],
      "name": "SellingSuccess",
      "type": "event"
    },
    {
      "anonymous": false,
      "inputs": [
        {
          "indexed": true,
          "internalType": "address",
          "name": "from",
          "type": "address"
        },
        {
          "indexed": true,
          "internalType": "address",
          "name": "to",
          "type": "address"
        },
        {
          "indexed": true,
          "internalType": "uint256",
          "name": "tokenId",
          "type": "uint256"
        }
      ],
      "name": "Transfer",
      "type": "event"
    },
    {
      "anonymous": false,
      "inputs": [
        {
          "indexed": false,
          "internalType": "address",
          "name": "account",
          "type": "address"
        }
      ],
      "name": "Unpaused",
      "type": "event"
    },
    {
      "inputs": [],
      "name": "DEFAULT_ADMIN_ROLE",
      "outputs": [
        {
          "internalType": "bytes32",
          "name": "",
          "type": "bytes32"
        }
      ],
      "stateMutability": "view",
      "type": "function"
    },
    {
      "inputs": [],
      "name": "MINTER_ROLE",
      "outputs": [
        {
          "internalType": "bytes32",
          "name": "",
          "type": "bytes32"
        }
      ],
      "stateMutability": "view",
      "type": "function"
    },
    {
      "inputs": [],
      "name": "_casimir",
      "outputs": [
        {
          "internalType": "address payable",
          "name": "",
          "type": "address"
        }
      ],
      "stateMutability": "view",
      "type": "function"
    },
    {
      "inputs": [
        {
          "internalType": "uint256",
          "name": "_assetPrice",
          "type": "uint256"
        },
        {
          "internalType": "string",
          "name": "_ipfsHash",
          "type": "string"
        },
        {
          "internalType": "uint256",
          "name": "assetIndex",
          "type": "uint256"
        }
      ],
      "name": "addAsset",
      "outputs": [],
      "stateMutability": "nonpayable",
      "type": "function"
    },
    {
      "inputs": [
        {
          "internalType": "address",
          "name": "_address",
          "type": "address"
        }
      ],
      "name": "addMinterRole",
      "outputs": [],
      "stateMutability": "nonpayable",
      "type": "function"
    },
    {
      "inputs": [
        {
          "internalType": "address",
          "name": "to",
          "type": "address"
        },
        {
          "internalType": "uint256",
          "name": "tokenId",
          "type": "uint256"
        }
      ],
      "name": "approve",
      "outputs": [],
      "stateMutability": "nonpayable",
      "type": "function"
    },
    {
      "inputs": [
        {
          "internalType": "uint256",
          "name": "",
          "type": "uint256"
        }
      ],
      "name": "assets",
      "outputs": [
        {
          "internalType": "string",
          "name": "_ipfsHash",
          "type": "string"
        },
        {
          "internalType": "address",
          "name": "_ownerAddress",
          "type": "address"
        },
        {
          "internalType": "uint256",
          "name": "_assetPrice",
          "type": "uint256"
        },
        {
          "internalType": "enum AssetDataObjects.Status",
          "name": "_status",
          "type": "uint8"
        }
      ],
      "stateMutability": "view",
      "type": "function"
    },
    {
      "inputs": [
        {
          "internalType": "address",
          "name": "owner",
          "type": "address"
        }
      ],
      "name": "balanceOf",
      "outputs": [
        {
          "internalType": "uint256",
          "name": "",
          "type": "uint256"
        }
      ],
      "stateMutability": "view",
      "type": "function"
    },
    {
      "inputs": [
        {
          "internalType": "uint256",
          "name": "tokenId",
          "type": "uint256"
        }
      ],
      "name": "burn",
      "outputs": [],
      "stateMutability": "nonpayable",
      "type": "function"
    },
    {
      "inputs": [
        {
          "internalType": "uint256",
          "name": "_tokenId",
          "type": "uint256"
        }
      ],
      "name": "buyNFT",
      "outputs": [],
      "stateMutability": "payable",
      "type": "function"
    },
    {
      "inputs": [
        {
          "internalType": "uint256",
          "name": "_tokenId",
          "type": "uint256"
        }
      ],
      "name": "cancelSelling",
      "outputs": [],
      "stateMutability": "nonpayable",
      "type": "function"
    },
    {
      "inputs": [
        {
          "internalType": "uint256",
          "name": "_tokenId",
          "type": "uint256"
        },
        {
          "internalType": "uint256",
          "name": "_newPrice",
          "type": "uint256"
        }
      ],
      "name": "changeSellingPrice",
      "outputs": [],
      "stateMutability": "nonpayable",
      "type": "function"
    },
    {
      "inputs": [
        {
          "internalType": "uint256",
          "name": "tokenId",
          "type": "uint256"
        }
      ],
      "name": "exists",
      "outputs": [
        {
          "internalType": "bool",
          "name": "",
          "type": "bool"
        }
      ],
      "stateMutability": "view",
      "type": "function"
    },
    {
      "inputs": [],
      "name": "getAllListings",
      "outputs": [
        {
          "components": [
            {
              "internalType": "uint256",
              "name": "tokenId",
              "type": "uint256"
            },
            {
              "internalType": "uint256",
              "name": "price",
              "type": "uint256"
            }
          ],
          "internalType": "struct Asset.Listing[]",
          "name": "",
          "type": "tuple[]"
        }
      ],
      "stateMutability": "view",
      "type": "function"
    },
    {
      "inputs": [],
      "name": "getAllListingsInReverse",
      "outputs": [
        {
          "components": [
            {
              "internalType": "uint256",
              "name": "tokenId",
              "type": "uint256"
            },
            {
              "internalType": "uint256",
              "name": "price",
              "type": "uint256"
            }
          ],
          "internalType": "struct Asset.Listing[]",
          "name": "",
          "type": "tuple[]"
        }
      ],
      "stateMutability": "view",
      "type": "function"
    },
    {
      "inputs": [
        {
          "internalType": "uint256",
          "name": "tokenId",
          "type": "uint256"
        }
      ],
      "name": "getApproved",
      "outputs": [
        {
          "internalType": "address",
          "name": "",
          "type": "address"
        }
      ],
      "stateMutability": "view",
      "type": "function"
    },
    {
      "inputs": [
        {
          "internalType": "uint256",
          "name": "tokenId",
          "type": "uint256"
        }
      ],
      "name": "getAssetIndexByTokenId",
      "outputs": [
        {
          "internalType": "uint256",
          "name": "",
          "type": "uint256"
        }
      ],
      "stateMutability": "view",
      "type": "function"
    },
    {
      "inputs": [
        {
          "internalType": "uint256",
          "name": "assetIndex",
          "type": "uint256"
        }
      ],
      "name": "getAssetNFT",
      "outputs": [
        {
          "components": [
            {
              "internalType": "string",
              "name": "_ipfsHash",
              "type": "string"
            },
            {
              "internalType": "address",
              "name": "_ownerAddress",
              "type": "address"
            },
            {
              "internalType": "uint256",
              "name": "_assetPrice",
              "type": "uint256"
            },
            {
              "internalType": "enum AssetDataObjects.Status",
              "name": "_status",
              "type": "uint8"
            }
          ],
          "internalType": "struct AssetDataObjects.AssetNFT",
          "name": "asset_",
          "type": "tuple"
        }
      ],
      "stateMutability": "view",
      "type": "function"
    },
    {
      "inputs": [
        {
          "internalType": "uint256",
          "name": "assetIndex",
          "type": "uint256"
        }
      ],
      "name": "getAssetNFTStatus",
      "outputs": [
        {
          "internalType": "enum AssetDataObjects.Status",
          "name": "_status",
          "type": "uint8"
        }
      ],
      "stateMutability": "view",
      "type": "function"
    },
    {
      "inputs": [
        {
          "internalType": "address",
          "name": "user",
          "type": "address"
        }
      ],
      "name": "getListingsByUser",
      "outputs": [
        {
          "components": [
            {
              "internalType": "uint256",
              "name": "tokenId",
              "type": "uint256"
            },
            {
              "internalType": "uint256",
              "name": "price",
              "type": "uint256"
            }
          ],
          "internalType": "struct Asset.Listing[]",
          "name": "",
          "type": "tuple[]"
        }
      ],
      "stateMutability": "view",
      "type": "function"
    },
    {
      "inputs": [],
      "name": "getMyTokenCollection",
      "outputs": [
        {
          "internalType": "uint256[]",
          "name": "myCollectables",
          "type": "uint256[]"
        }
      ],
      "stateMutability": "view",
      "type": "function"
    },
    {
      "inputs": [
        {
          "internalType": "uint256",
          "name": "_tokenId",
          "type": "uint256"
        }
      ],
      "name": "getPrice",
      "outputs": [
        {
          "internalType": "uint256",
          "name": "",
          "type": "uint256"
        }
      ],
      "stateMutability": "view",
      "type": "function"
    },
    {
      "inputs": [
        {
          "internalType": "bytes32",
          "name": "role",
          "type": "bytes32"
        }
      ],
      "name": "getRoleAdmin",
      "outputs": [
        {
          "internalType": "bytes32",
          "name": "",
          "type": "bytes32"
        }
      ],
      "stateMutability": "view",
      "type": "function"
    },
    {
      "inputs": [
        {
          "internalType": "bytes32",
          "name": "role",
          "type": "bytes32"
        },
        {
          "internalType": "uint256",
          "name": "index",
          "type": "uint256"
        }
      ],
      "name": "getRoleMember",
      "outputs": [
        {
          "internalType": "address",
          "name": "",
          "type": "address"
        }
      ],
      "stateMutability": "view",
      "type": "function"
    },
    {
      "inputs": [
        {
          "internalType": "bytes32",
          "name": "role",
          "type": "bytes32"
        }
      ],
      "name": "getRoleMemberCount",
      "outputs": [
        {
          "internalType": "uint256",
          "name": "",
          "type": "uint256"
        }
      ],
      "stateMutability": "view",
      "type": "function"
    },
    {
      "inputs": [
        {
          "internalType": "uint256",
          "name": "assetIndex",
          "type": "uint256"
        }
      ],
      "name": "getTokenIdByAssetIndex",
      "outputs": [
        {
          "internalType": "uint256",
          "name": "",
          "type": "uint256"
        }
      ],
      "stateMutability": "view",
      "type": "function"
    },
    {
      "inputs": [
        {
          "internalType": "bytes32",
          "name": "role",
          "type": "bytes32"
        },
        {
          "internalType": "address",
          "name": "account",
          "type": "address"
        }
      ],
      "name": "grantRole",
      "outputs": [],
      "stateMutability": "nonpayable",
      "type": "function"
    },
    {
      "inputs": [
        {
          "internalType": "address",
          "name": "_address",
          "type": "address"
        }
      ],
      "name": "hasMinterRole",
      "outputs": [
        {
          "internalType": "bool",
          "name": "",
          "type": "bool"
        }
      ],
      "stateMutability": "view",
      "type": "function"
    },
    {
      "inputs": [
        {
          "internalType": "bytes32",
          "name": "role",
          "type": "bytes32"
        },
        {
          "internalType": "address",
          "name": "account",
          "type": "address"
        }
      ],
      "name": "hasRole",
      "outputs": [
        {
          "internalType": "bool",
          "name": "",
          "type": "bool"
        }
      ],
      "stateMutability": "view",
      "type": "function"
    },
    {
      "inputs": [
        {
          "internalType": "address",
          "name": "owner",
          "type": "address"
        },
        {
          "internalType": "address",
          "name": "operator",
          "type": "address"
        }
      ],
      "name": "isApprovedForAll",
      "outputs": [
        {
          "internalType": "bool",
          "name": "",
          "type": "bool"
        }
      ],
      "stateMutability": "view",
      "type": "function"
    },
    {
      "inputs": [
        {
          "internalType": "uint256",
          "name": "tokenID",
          "type": "uint256"
        }
      ],
      "name": "isInAuction",
      "outputs": [
        {
          "internalType": "bool",
          "name": "",
          "type": "bool"
        }
      ],
      "stateMutability": "view",
      "type": "function"
    },
    {
      "inputs": [
        {
          "internalType": "uint256",
          "name": "_tokenId",
          "type": "uint256"
        }
      ],
      "name": "isToSell",
      "outputs": [
        {
          "internalType": "bool",
          "name": "",
          "type": "bool"
        }
      ],
      "stateMutability": "view",
      "type": "function"
    },
    {
      "inputs": [
        {
          "internalType": "uint256",
          "name": "assetIndex",
          "type": "uint256"
        },
        {
          "internalType": "address",
          "name": "owner",
          "type": "address"
        }
      ],
      "name": "mint",
      "outputs": [],
      "stateMutability": "nonpayable",
      "type": "function"
    },
    {
      "inputs": [],
      "name": "name",
      "outputs": [
        {
          "internalType": "string",
          "name": "",
          "type": "string"
        }
      ],
      "stateMutability": "view",
      "type": "function"
    },
    {
      "inputs": [],
      "name": "owner",
      "outputs": [
        {
          "internalType": "address",
          "name": "",
          "type": "address"
        }
      ],
      "stateMutability": "view",
      "type": "function"
    },
    {
      "inputs": [
        {
          "internalType": "uint256",
          "name": "tokenId",
          "type": "uint256"
        }
      ],
      "name": "ownerOf",
      "outputs": [
        {
          "internalType": "address",
          "name": "",
          "type": "address"
        }
      ],
      "stateMutability": "view",
      "type": "function"
    },
    {
      "inputs": [],
      "name": "pauseContract",
      "outputs": [],
      "stateMutability": "nonpayable",
      "type": "function"
    },
    {
      "inputs": [],
      "name": "paused",
      "outputs": [
        {
          "internalType": "bool",
          "name": "",
          "type": "bool"
        }
      ],
      "stateMutability": "view",
      "type": "function"
    },
    {
      "inputs": [
        {
          "internalType": "uint256",
          "name": "_tokenId",
          "type": "uint256"
        },
        {
          "internalType": "uint256",
          "name": "_price",
          "type": "uint256"
        }
      ],
      "name": "putToSell",
      "outputs": [],
      "stateMutability": "nonpayable",
      "type": "function"
    },
    {
      "inputs": [
        {
          "internalType": "address",
          "name": "_address",
          "type": "address"
        }
      ],
      "name": "removeMinterRole",
      "outputs": [],
      "stateMutability": "nonpayable",
      "type": "function"
    },
    {
      "inputs": [],
      "name": "renounceOwnership",
      "outputs": [],
      "stateMutability": "nonpayable",
      "type": "function"
    },
    {
      "inputs": [
        {
          "internalType": "bytes32",
          "name": "role",
          "type": "bytes32"
        },
        {
          "internalType": "address",
          "name": "account",
          "type": "address"
        }
      ],
      "name": "renounceRole",
      "outputs": [],
      "stateMutability": "nonpayable",
      "type": "function"
    },
    {
      "inputs": [
        {
          "internalType": "bytes32",
          "name": "role",
          "type": "bytes32"
        },
        {
          "internalType": "address",
          "name": "account",
          "type": "address"
        }
      ],
      "name": "revokeRole",
      "outputs": [],
      "stateMutability": "nonpayable",
      "type": "function"
    },
    {
      "inputs": [
        {
          "internalType": "address",
          "name": "from",
          "type": "address"
        },
        {
          "internalType": "address",
          "name": "to",
          "type": "address"
        },
        {
          "internalType": "uint256",
          "name": "tokenId",
          "type": "uint256"
        }
      ],
      "name": "safeTransferFrom",
      "outputs": [],
      "stateMutability": "nonpayable",
      "type": "function"
    },
    {
      "inputs": [
        {
          "internalType": "address",
          "name": "from",
          "type": "address"
        },
        {
          "internalType": "address",
          "name": "to",
          "type": "address"
        },
        {
          "internalType": "uint256",
          "name": "tokenId",
          "type": "uint256"
        },
        {
          "internalType": "bytes",
          "name": "_data",
          "type": "bytes"
        }
      ],
      "name": "safeTransferFrom",
      "outputs": [],
      "stateMutability": "nonpayable",
      "type": "function"
    },
    {
      "inputs": [
        {
          "internalType": "address",
          "name": "operator",
          "type": "address"
        },
        {
          "internalType": "bool",
          "name": "approved",
          "type": "bool"
        }
      ],
      "name": "setApprovalForAll",
      "outputs": [],
      "stateMutability": "nonpayable",
      "type": "function"
    },
    {
      "inputs": [
        {
          "internalType": "string",
          "name": "newBaseUri",
          "type": "string"
        }
      ],
      "name": "setBaseURI",
      "outputs": [],
      "stateMutability": "nonpayable",
      "type": "function"
    },
    {
      "inputs": [],
      "name": "status",
      "outputs": [
        {
          "internalType": "enum AssetDataObjects.Status",
          "name": "",
          "type": "uint8"
        }
      ],
      "stateMutability": "view",
      "type": "function"
    },
    {
      "inputs": [
        {
          "internalType": "bytes4",
          "name": "interfaceId",
          "type": "bytes4"
        }
      ],
      "name": "supportsInterface",
      "outputs": [
        {
          "internalType": "bool",
          "name": "",
          "type": "bool"
        }
      ],
      "stateMutability": "view",
      "type": "function"
    },
    {
      "inputs": [],
      "name": "symbol",
      "outputs": [
        {
          "internalType": "string",
          "name": "",
          "type": "string"
        }
      ],
      "stateMutability": "view",
      "type": "function"
    },
    {
      "inputs": [
        {
          "internalType": "uint256",
          "name": "",
          "type": "uint256"
        }
      ],
      "name": "tokenToAuction",
      "outputs": [
        {
          "internalType": "uint256",
          "name": "",
          "type": "uint256"
        }
      ],
      "stateMutability": "view",
      "type": "function"
    },
    {
      "inputs": [
        {
          "internalType": "uint256",
          "name": "tokenId",
          "type": "uint256"
        }
      ],
      "name": "tokenURI",
      "outputs": [
        {
          "internalType": "string",
          "name": "",
          "type": "string"
        }
      ],
      "stateMutability": "view",
      "type": "function"
    },
    {
      "inputs": [],
      "name": "totalListings",
      "outputs": [
        {
          "internalType": "uint256",
          "name": "",
          "type": "uint256"
        }
      ],
      "stateMutability": "view",
      "type": "function"
    },
    {
      "inputs": [
        {
          "internalType": "address",
          "name": "from",
          "type": "address"
        },
        {
          "internalType": "address",
          "name": "to",
          "type": "address"
        },
        {
          "internalType": "uint256",
          "name": "tokenId",
          "type": "uint256"
        }
      ],
      "name": "transferFrom",
      "outputs": [],
      "stateMutability": "nonpayable",
      "type": "function"
    },
    {
      "inputs": [
        {
          "internalType": "address",
          "name": "newOwner",
          "type": "address"
        }
      ],
      "name": "transferOwnership",
      "outputs": [],
      "stateMutability": "nonpayable",
      "type": "function"
    },
    {
      "inputs": [],
      "name": "unpauseContract",
      "outputs": [],
      "stateMutability": "nonpayable",
      "type": "function"
    },
    {
      "inputs": [
        {
          "internalType": "address",
          "name": "_engine",
          "type": "address"
        }
      ],
      "name": "updateEngine",
      "outputs": [],
      "stateMutability": "nonpayable",
      "type": "function"
    }
  ],
  "bytecode": "0x60806040523480156200001157600080fd5b5060405162004dc138038062004dc18339810160408190526200003491620003fa565b8451859085906200004d9060029060208501906200029d565b508051620000639060039060208401906200029d565b50506009805460ff1916905550600b80546001600160a01b0319163390811790915560405181906000907f8be0079c531659141344cd1fd0a4f28419497f9722a3daafe3b4186f6b6457e0908290a3508251620000c89060139060208601906200029d565b50620000d660003362000138565b620001027f9f2df0fed2c77648de5860a4cc508cd0818c85b8b8a1ab4ceeef8d981c8956a63362000138565b600f80546001600160a01b039384166001600160a01b031991821617909155600e80549290931691161790555062000524915050565b6200014f82826200017b60201b620027b51760201c565b600082815260016020908152604090912062000176918390620027bf6200018b821b17901c565b505050565b620001878282620001ab565b5050565b6000620001a2836001600160a01b0384166200024b565b90505b92915050565b6000828152602081815260408083206001600160a01b038516845290915290205460ff1662000187576000828152602081815260408083206001600160a01b03851684529091529020805460ff19166001179055620002073390565b6001600160a01b0316816001600160a01b0316837f2f8788117e7eff1d82e926ec794901d17c78024a50270940304540a733656f0d60405160405180910390a45050565b60008181526001830160205260408120546200029457508154600181810184556000848152602080822090930184905584548482528286019093526040902091909155620001a5565b506000620001a5565b828054620002ab90620004b8565b90600052602060002090601f016020900481019282620002cf57600085556200031a565b82601f10620002ea57805160ff19168380011785556200031a565b828001600101855582156200031a579182015b828111156200031a578251825591602001919060010190620002fd565b50620003289291506200032c565b5090565b5b808211156200032857600081556001016200032d565b600082601f8301126200035557600080fd5b81516001600160401b0380821115620003725762000372620004f5565b604051601f8301601f19908116603f011681019082821181831017156200039d576200039d620004f5565b81604052838152602092508683858801011115620003ba57600080fd5b600091505b83821015620003de5785820183015181830184015290820190620003bf565b83821115620003f05760008385830101525b9695505050505050565b600080600080600060a086880312156200041357600080fd5b85516001600160401b03808211156200042b57600080fd5b6200043989838a0162000343565b965060208801519150808211156200045057600080fd5b6200045e89838a0162000343565b955060408801519150808211156200047557600080fd5b50620004848882890162000343565b935050606086015162000497816200050b565b6080870151909250620004aa816200050b565b809150509295509295909350565b600181811c90821680620004cd57607f821691505b60208210811415620004ef57634e487b7160e01b600052602260045260246000fd5b50919050565b634e487b7160e01b600052604160045260246000fd5b6001600160a01b03811681146200052157600080fd5b50565b61488d80620005346000396000f3fe6080604052600436106103765760003560e01c8063715018a6116101d1578063bbb2c10911610102578063cf35bdd0116100a0578063e75722301161006f578063e757223014610a86578063e783080c14610aa6578063e985e9c514610ac6578063f2fde38b14610b0f57600080fd5b8063cf35bdd0146109e2578063cf8fd54a14610a12578063d539139314610a32578063d547741f14610a6657600080fd5b8063c45e07b9116100dc578063c45e07b91461096b578063c78b616c1461098d578063c87b56dd146109a2578063ca15c873146109c257600080fd5b8063bbb2c1091461090b578063bd15092f1461092b578063c3c5efaf1461094b57600080fd5b8063a217fddf1161016f578063ae73ccec11610149578063ae73ccec14610894578063b33712c5146108a9578063b88d4fde146108be578063bb19dd08146108de57600080fd5b8063a217fddf1461083f578063a22cb46514610854578063adbf37761461087457600080fd5b806391d14854116101ab57806391d14854146107a657806394bf804d146107ea57806395d89b411461080a57806399f25af21461081f57600080fd5b8063715018a6146107535780638da5cb5b146107685780639010d07c1461078657600080fd5b806342966c68116102ab578063594299ef116102495780636352211e116102235780636352211e146106c05780636663cdd9146106e057806369df83271461071357806370a082311461073357600080fd5b8063594299ef146106665780635bf121be146106885780635c975abb146106a857600080fd5b80634f558e79116102855780634f558e79146105f357806351ed82881461061357806354f1e1261461062657806355f804b31461064657600080fd5b806342966c68146105915780634385d30f146105b1578063439766ce146105de57600080fd5b8063200d2ed2116103185780632f2ff15d116102f25780632f2ff15d146105115780632f33df601461053157806336568abe1461055157806342842e0e1461057157600080fd5b8063200d2ed21461048c57806323b872dd146104b3578063248a9ca3146104d357600080fd5b8063095ea7b311610354578063095ea7b31461040a578063099db0171461042c57806317fedbc21461044c5780631f0c41901461046c57600080fd5b806301ffc9a71461037b57806306fdde03146103b0578063081812fc146103d2575b600080fd5b34801561038757600080fd5b5061039b6103963660046143f5565b610b2f565b60405190151581526020015b60405180910390f35b3480156103bc57600080fd5b506103c5610b40565b6040516103a79190614627565b3480156103de57600080fd5b506103f26103ed366004614397565b610bd2565b6040516001600160a01b0390911681526020016103a7565b34801561041657600080fd5b5061042a610425366004614350565b610c6c565b005b34801561043857600080fd5b5061039b610447366004614213565b610ce2565b34801561045857600080fd5b5061039b610467366004614397565b610d22565b34801561047857600080fd5b50600f546103f2906001600160a01b031681565b34801561049857600080fd5b50601c546104a69060ff1681565b6040516103a79190614619565b3480156104bf57600080fd5b5061042a6104ce366004614261565b610da0565b3480156104df57600080fd5b506105036104ee366004614397565b60009081526020819052604090206001015490565b6040519081526020016103a7565b34801561051d57600080fd5b5061042a61052c3660046143b0565b610e2d565b34801561053d57600080fd5b5061042a61054c366004614397565b610e4f565b34801561055d57600080fd5b5061042a61056c3660046143b0565b610ff7565b34801561057d57600080fd5b5061042a61058c366004614261565b611019565b34801561059d57600080fd5b5061042a6105ac366004614397565b611034565b3480156105bd57600080fd5b506105d16105cc366004614397565b6110bb565b6040516103a7919061467a565b3480156105ea57600080fd5b5061042a6111c2565b3480156105ff57600080fd5b5061039b61060e366004614397565b611226565b61042a610621366004614397565b611245565b34801561063257600080fd5b5061042a610641366004614213565b611670565b34801561065257600080fd5b5061042a61066136600461442f565b6116d3565b34801561067257600080fd5b5061067b611763565b6040516103a79190614586565b34801561069457600080fd5b506105036106a3366004614397565b611859565b3480156106b457600080fd5b5060095460ff1661039b565b3480156106cc57600080fd5b506103f26106db366004614397565b611866565b3480156106ec57600080fd5b506104a66106fb366004614397565b60009081526016602052604090206003015460ff1690565b34801561071f57600080fd5b5061067b61072e366004614213565b611871565b34801561073f57600080fd5b5061050361074e366004614213565b6119a2565b34801561075f57600080fd5b5061042a611a3c565b34801561077457600080fd5b50600b546001600160a01b03166103f2565b34801561079257600080fd5b506103f26107a13660046143d3565b611ae0565b3480156107b257600080fd5b5061039b6107c13660046143b0565b6000918252602082815260408084206001600160a01b0393909316845291905290205460ff1690565b3480156107f657600080fd5b5061042a6108053660046143b0565b611aff565b34801561081657600080fd5b506103c5611cb3565b34801561082b57600080fd5b5061050361083a366004614397565b611cc2565b34801561084b57600080fd5b50610503600081565b34801561086057600080fd5b5061042a61086f366004614319565b611ccf565b34801561088057600080fd5b5061042a61088f366004614213565b611d94565b3480156108a057600080fd5b5061067b611df7565b3480156108b557600080fd5b5061042a611ed2565b3480156108ca57600080fd5b5061042a6108d936600461429d565b611f34565b3480156108ea57600080fd5b506105036108f9366004614397565b60106020526000908152604090205481565b34801561091757600080fd5b5061042a6109263660046143d3565b611fbc565b34801561093757600080fd5b5061042a610946366004614213565b612196565b34801561095757600080fd5b5061039b610966366004614397565b612212565b34801561097757600080fd5b50610980612253565b6040516103a791906145d5565b34801561099957600080fd5b506105036122b3565b3480156109ae57600080fd5b506103c56109bd366004614397565b6122c4565b3480156109ce57600080fd5b506105036109dd366004614397565b6122cf565b3480156109ee57600080fd5b50610a026109fd366004614397565b6122e6565b6040516103a7949392919061463a565b348015610a1e57600080fd5b5061042a610a2d3660046143d3565b6123bd565b348015610a3e57600080fd5b506105037f9f2df0fed2c77648de5860a4cc508cd0818c85b8b8a1ab4ceeef8d981c8956a681565b348015610a7257600080fd5b5061042a610a813660046143b0565b6125ad565b348015610a9257600080fd5b50610503610aa1366004614397565b6125b7565b348015610ab257600080fd5b5061042a610ac136600461447d565b612634565b348015610ad257600080fd5b5061039b610ae136600461422e565b6001600160a01b03918216600090815260076020908152604080832093909416825291909152205460ff1690565b348015610b1b57600080fd5b5061042a610b2a366004614213565b612683565b6000610b3a826127d4565b92915050565b606060028054610b4f90614774565b80601f0160208091040260200160405190810160405280929190818152602001828054610b7b90614774565b8015610bc85780601f10610b9d57610100808354040283529160200191610bc8565b820191906000526020600020905b815481529060010190602001808311610bab57829003601f168201915b5050505050905090565b6000818152600460205260408120546001600160a01b0316610c505760405162461bcd60e51b815260206004820152602c60248201527f4552433732313a20617070726f76656420717565727920666f72206e6f6e657860448201526b34b9ba32b73a103a37b5b2b760a11b60648201526084015b60405180910390fd5b506000908152600660205260409020546001600160a01b031690565b610c7581610d22565b158015610c885750610c8681612212565b155b610cd45760405162461bcd60e51b815260206004820152601460248201527f54686973204e465420697320746f2074726164650000000000000000000000006044820152606401610c47565b610cde8282612814565b5050565b6001600160a01b03811660009081527f0781d7cac9c378efa22a7481e4d4d29704a680ddf504b3bc50b517700ee11e6c602052604081205460ff16610b3a565b600e54604051630bff6de160e11b8152600481018390526000916001600160a01b0316906317fedbc2906024015b60206040518083038186803b158015610d6857600080fd5b505afa158015610d7c573d6000803e3d6000fd5b505050506040513d601f19601f82011682018060405250810190610b3a919061437a565b610dab335b82612925565b610e1d5760405162461bcd60e51b815260206004820152603160248201527f4552433732313a207472616e736665722063616c6c6572206973206e6f74206f60448201527f776e6572206e6f7220617070726f7665640000000000000000000000000000006064820152608401610c47565b610e28838383612a1c565b505050565b610e378282612bdb565b6000828152600160205260409020610e2890826127bf565b610e5a600c82612c6a565b610ea65760405162461bcd60e51b815260206004820152601260248201527f4e6f6e206578697374616e7420746f6b656e00000000000000000000000000006044820152606401610c47565b610eaf81611866565b6001600160a01b0316336001600160a01b031614610f065760405162461bcd60e51b815260206004820152601460248201527324ba1034b9903737ba103cb7bab9103a37b5b2b760611b6044820152606401610c47565b33610f455760405162461bcd60e51b815260206004820152600f60248201526e696e76616c6964204164647265737360881b6044820152606401610c47565b610f50600082610c6c565b600e546040516301799efb60e51b8152600481018390526001600160a01b0390911690632f33df6090602401600060405180830381600087803b158015610f9657600080fd5b505af1158015610faa573d6000803e3d6000fd5b50505050610fc281600c612c8290919063ffffffff16565b50336000908152601260205260409020610fdc9082612c8e565b506000610fea601a83612c9a565b9050610cde816003612ca6565b6110018282612cdf565b6000828152600160205260409020610e289082612d67565b610e2883838360405180602001604052806000815250611f34565b61103d33610da5565b6110af5760405162461bcd60e51b815260206004820152603060248201527f4552433732314275726e61626c653a2063616c6c6572206973206e6f74206f7760448201527f6e6572206e6f7220617070726f766564000000000000000000000000000000006064820152608401610c47565b6110b881612d7c565b50565b6110c3614051565b600082815260166020526040908190208151608081019092528054829082906110eb90614774565b80601f016020809104026020016040519081016040528092919081815260200182805461111790614774565b80156111645780601f1061113957610100808354040283529160200191611164565b820191906000526020600020905b81548152906001019060200180831161114757829003601f168201915b505050918352505060018201546001600160a01b0316602082015260028201546040820152600382015460609091019060ff1660048111156111a8576111a8614804565b60048111156111b9576111b9614804565b90525092915050565b600b546001600160a01b0316331461121c5760405162461bcd60e51b815260206004820181905260248201527f4f776e61626c653a2063616c6c6572206973206e6f7420746865206f776e65726044820152606401610c47565b611224612ddf565b565b6000818152600460205260408120546001600160a01b03161515610b3a565b60095460ff161561128b5760405162461bcd60e51b815260206004820152601060248201526f14185d5cd8589b194e881c185d5cd95960821b6044820152606401610c47565b611296600c82612c6a565b6112e25760405162461bcd60e51b815260206004820152601260248201527f4e6f6e206578697374616e7420746f6b656e00000000000000000000000000006044820152606401610c47565b6112eb81611866565b6001600160a01b0316336001600160a01b0316141561134c5760405162461bcd60e51b815260206004820152601060248201527f497420697320796f757220746f6b656e000000000000000000000000000000006044820152606401610c47565b3361138b5760405162461bcd60e51b815260206004820152600f60248201526e696e76616c6964204164647265737360881b6044820152606401610c47565b611396600c82612c9a565b34146113e45760405162461bcd60e51b815260206004820152600d60248201527f4e6f7420746865207072696365000000000000000000000000000000000000006044820152606401610c47565b600e546040516301799efb60e51b8152600481018390526001600160a01b0390911690632f33df6090602401600060405180830381600087803b15801561142a57600080fd5b505af115801561143e573d6000803e3d6000fd5b5050505061145681600c612c8290919063ffffffff16565b50611487816012600061146885611866565b6001600160a01b03168152602081019190915260400160002090612c8e565b5061149181611866565b6001600160a01b03166108fc60646114aa3460616146fb565b6114b491906146e7565b6040518115909202916000818181858888f193505050501580156114dc573d6000803e3d6000fd5b50600f546001600160a01b03166108fc60646114f93460036146fb565b61150391906146e7565b6040518115909202916000818181858888f1935050505015801561152b573d6000803e3d6000fd5b507f020601e739a0890fac5bb2959046acfac77ed242afbe97cd3d8f00e4c414a254348261155884611866565b6040805193845260208401929092526001600160a01b03169082015233606082015260800160405180910390a16000611592601a83612c9a565b905061159f816004612ca6565b306342842e0e6115ae84611866565b6040516001600160e01b031960e084901b1681526001600160a01b03909116600482015233602482015260448101859052606401600060405180830381600087803b1580156115fc57600080fd5b505af1158015611610573d6000803e3d6000fd5b5050506000828152601660205260409020905061162c83611866565b600191820180546001600160a01b0319166001600160a01b039290921691909117905533600090815260116020908152604082208054938401815582529020015550565b61169a7f9f2df0fed2c77648de5860a4cc508cd0818c85b8b8a1ab4ceeef8d981c8956a6826125ad565b60405133906001600160a01b038316907f56692a161ffec953ddf9def93b958ea8d1ec95e21b80870c66be91a4374dc4e390600090a350565b6116de6000336107c1565b6117505760405162461bcd60e51b815260206004820152602e60248201527f4552433732313a206d75737420686176652061646d696e20726f6c6520746f2060448201527f6368616e676520626173655572690000000000000000000000000000000000006064820152608401610c47565b8051610cde906013906020840190614092565b60606000611771600c612e77565b67ffffffffffffffff81111561178957611789614846565b6040519080825280602002602001820160405280156117ce57816020015b60408051808201909152600080825260208201528152602001906001900390816117a75790505b50905060006117dd600c612e77565b90505b8015611853576000806117f4600c84612e81565b915091506040518060400160405280838152602001828152508484611819600c612e77565b611823919061471a565b8151811061183357611833614830565b60200260200101819052505050808061184b9061475d565b9150506117e0565b50919050565b6000610b3a601a83612c9a565b6000610b3a82612e99565b6001600160a01b03811660009081526012602052604081206060919061189690612e77565b67ffffffffffffffff8111156118ae576118ae614846565b6040519080825280602002602001820160405280156118f357816020015b60408051808201909152600080825260208201528152602001906001900390816118cc5790505b50905060005b6001600160a01b038416600090815260126020526040902061191a90612e77565b81101561199b576001600160a01b03841660009081526012602052604081206119439083612f24565b90506000611952600c83612c9a565b905060405180604001604052808381526020018281525084848151811061197b5761197b614830565b602002602001018190525050508080611993906147a9565b9150506118f9565b5092915050565b60006001600160a01b038216611a205760405162461bcd60e51b815260206004820152602a60248201527f4552433732313a2062616c616e636520717565727920666f7220746865207a6560448201527f726f2061646472657373000000000000000000000000000000000000000000006064820152608401610c47565b506001600160a01b031660009081526005602052604090205490565b600b546001600160a01b03163314611a965760405162461bcd60e51b815260206004820181905260248201527f4f776e61626c653a2063616c6c6572206973206e6f7420746865206f776e65726044820152606401610c47565b600b546040516000916001600160a01b0316907f8be0079c531659141344cd1fd0a4f28419497f9722a3daafe3b4186f6b6457e0908390a3600b80546001600160a01b0319169055565b6000828152600160205260408120611af89083612f24565b9392505050565b60095460ff1615611b455760405162461bcd60e51b815260206004820152601060248201526f14185d5cd8589b194e881c185d5cd95960821b6044820152606401610c47565b611b6f7f9f2df0fed2c77648de5860a4cc508cd0818c85b8b8a1ab4ceeef8d981c8956a6336107c1565b611bbb5760405162461bcd60e51b815260206004820152601d60248201527f6d7573742068617665206d696e74657220726f6c6520746f206d696e740000006044820152606401610c47565b6000611bc660155490565b9050611bd6601580546001019055565b611be08282612f30565b600083815260166020526040902060038101805460ff19166001179055611c0960188584612f4a565b50611c16601a8386612f4a565b50611cad82826000018054611c2a90614774565b80601f0160208091040260200160405190810160405280929190818152602001828054611c5690614774565b8015611ca35780601f10611c7857610100808354040283529160200191611ca3565b820191906000526020600020905b815481529060010190602001808311611c8657829003601f168201915b5050505050612f57565b50505050565b606060038054610b4f90614774565b6000610b3a601883612c9a565b6001600160a01b038216331415611d285760405162461bcd60e51b815260206004820152601960248201527f4552433732313a20617070726f766520746f2063616c6c6572000000000000006044820152606401610c47565b3360008181526007602090815260408083206001600160a01b03871680855290835292819020805460ff191686151590811790915590519081529192917f17307eab39ab6107e8899845ad3d59bd9653f200f220920489ca2b5937696c31910160405180910390a35050565b611dbe7f9f2df0fed2c77648de5860a4cc508cd0818c85b8b8a1ab4ceeef8d981c8956a682610e2d565b60405133906001600160a01b038316907f0be6ab9784c7401fafb73f7bc47bc67cc4ef8c47a60ad3cb66d1de0353a0784c90600090a350565b60606000611e05600c612e77565b67ffffffffffffffff811115611e1d57611e1d614846565b604051908082528060200260200182016040528015611e6257816020015b6040805180820190915260008082526020820152815260200190600190039081611e3b5790505b50905060005b611e72600c612e77565b81101561185357600080611e87600c84612e81565b91509150604051806040016040528083815260200182815250848481518110611eb257611eb2614830565b602002602001018190525050508080611eca906147a9565b915050611e68565b600b546001600160a01b03163314611f2c5760405162461bcd60e51b815260206004820181905260248201527f4f776e61626c653a2063616c6c6572206973206e6f7420746865206f776e65726044820152606401610c47565b611224613000565b611f3e3383612925565b611fb05760405162461bcd60e51b815260206004820152603160248201527f4552433732313a207472616e736665722063616c6c6572206973206e6f74206f60448201527f776e6572206e6f7220617070726f7665640000000000000000000000000000006064820152608401610c47565b611cad84848484613083565b81611fc8600c82612c6a565b6120145760405162461bcd60e51b815260206004820152601460248201527f6c697374696e6720646f65736e742065786973740000000000000000000000006044820152606401610c47565b60095460ff161561205a5760405162461bcd60e51b815260206004820152601060248201526f14185d5cd8589b194e881c185d5cd95960821b6044820152606401610c47565b61206383611866565b6001600160a01b0316336001600160a01b0316146120ba5760405162461bcd60e51b815260206004820152601460248201527324ba1034b9903737ba103cb7bab9103a37b5b2b760611b6044820152606401610c47565b336120f95760405162461bcd60e51b815260206004820152600f60248201526e696e76616c6964204164647265737360881b6044820152606401610c47565b600e5460405163bbb2c10960e01b815260048101859052602481018490526001600160a01b039091169063bbb2c10990604401600060405180830381600087803b15801561214657600080fd5b505af115801561215a573d6000803e3d6000fd5b5061216d9250600c915085905084612f4a565b50600061217b601a85612c9a565b60008181526016602052604090206002018490559050611cad565b600b546001600160a01b031633146121f05760405162461bcd60e51b815260206004820181905260248201527f4f776e61626c653a2063616c6c6572206973206e6f7420746865206f776e65726044820152606401610c47565b600e80546001600160a01b0319166001600160a01b0392909216919091179055565b600e5460008281526010602052604080822054905163c3c5efaf60e01b815291926001600160a01b03169163c3c5efaf91610d509160040190815260200190565b33600090815260116020908152604091829020805483518184028101840190945280845260609392830182828015610bc857602002820191906000526020600020905b815481526020019060010190808311612296575050505050905090565b60006122bf600c612e77565b905090565b6060610b3a82613101565b6000818152600160205260408120610b3a90612e77565b600a81815481106122f657600080fd5b906000526020600020906004020160009150905080600001805461231990614774565b80601f016020809104026020016040519081016040528092919081815260200182805461234590614774565b80156123925780601f1061236757610100808354040283529160200191612392565b820191906000526020600020905b81548152906001019060200180831161237557829003601f168201915b505050506001830154600284015460039094015492936001600160a01b039091169290915060ff1684565b60095460ff16156124035760405162461bcd60e51b815260206004820152601060248201526f14185d5cd8589b194e881c185d5cd95960821b6044820152606401610c47565b61240e600c83612c6a565b1561245b5760405162461bcd60e51b815260206004820152601660248201527f6c697374696e6720616c726561647920657869737473000000000000000000006044820152606401610c47565b61246482611866565b6001600160a01b0316336001600160a01b0316146124bb5760405162461bcd60e51b815260206004820152601460248201527324ba1034b9903737ba103cb7bab9103a37b5b2b760611b6044820152606401610c47565b336124fa5760405162461bcd60e51b815260206004820152600f60248201526e696e76616c6964204164647265737360881b6044820152606401610c47565b6125043083610c6c565b600e546040516367c7eaa560e11b815260048101849052602481018390526001600160a01b039091169063cf8fd54a90604401600060405180830381600087803b15801561255157600080fd5b505af1158015612565573d6000803e3d6000fd5b506125789250600c915084905083612f4a565b50336000908152601260205260409020612592908361327f565b5060006125a0601a84612c9a565b9050610e28816002612ca6565b611001828261328b565b600e54604051630e75722360e41b8152600481018390526000916001600160a01b03169063e75722309060240160206040518083038186803b1580156125fc57600080fd5b505afa158015612610573d6000803e3d6000fd5b505050506040513d601f19601f82011682018060405250810190610b3a9190614464565b6000818152601660209081526040909120600281018590558351909161265e918391860190614092565b506001810180546001600160a01b03191633179055600301805460ff19169055505050565b600b546001600160a01b031633146126dd5760405162461bcd60e51b815260206004820181905260248201527f4f776e61626c653a2063616c6c6572206973206e6f7420746865206f776e65726044820152606401610c47565b6001600160a01b0381166127595760405162461bcd60e51b815260206004820152602660248201527f4f776e61626c653a206e6577206f776e657220697320746865207a65726f206160448201527f64647265737300000000000000000000000000000000000000000000000000006064820152608401610c47565b600b546040516001600160a01b038084169216907f8be0079c531659141344cd1fd0a4f28419497f9722a3daafe3b4186f6b6457e090600090a3600b80546001600160a01b0319166001600160a01b0392909216919091179055565b610cde8282613318565b6000611af8836001600160a01b0384166133b6565b60006001600160e01b031982166380ac58cd60e01b148061280557506001600160e01b03198216635b5e139f60e01b145b80610b3a5750610b3a82613405565b600061281f82612e99565b9050806001600160a01b0316836001600160a01b0316141561288d5760405162461bcd60e51b815260206004820152602160248201527f4552433732313a20617070726f76616c20746f2063757272656e74206f776e656044820152603960f91b6064820152608401610c47565b336001600160a01b03821614806128a957506128a98133610ae1565b61291b5760405162461bcd60e51b815260206004820152603860248201527f4552433732313a20617070726f76652063616c6c6572206973206e6f74206f7760448201527f6e6572206e6f7220617070726f76656420666f7220616c6c00000000000000006064820152608401610c47565b610e28838361342a565b6000818152600460205260408120546001600160a01b031661299e5760405162461bcd60e51b815260206004820152602c60248201527f4552433732313a206f70657261746f7220717565727920666f72206e6f6e657860448201526b34b9ba32b73a103a37b5b2b760a11b6064820152608401610c47565b60006129a983612e99565b9050806001600160a01b0316846001600160a01b031614806129e45750836001600160a01b03166129d984610bd2565b6001600160a01b0316145b80612a1457506001600160a01b0380821660009081526007602090815260408083209388168352929052205460ff165b949350505050565b826001600160a01b0316612a2f82612e99565b6001600160a01b031614612aab5760405162461bcd60e51b815260206004820152602960248201527f4552433732313a207472616e73666572206f6620746f6b656e2074686174206960448201527f73206e6f74206f776e00000000000000000000000000000000000000000000006064820152608401610c47565b6001600160a01b038216612b0d5760405162461bcd60e51b8152602060048201526024808201527f4552433732313a207472616e7366657220746f20746865207a65726f206164646044820152637265737360e01b6064820152608401610c47565b612b18838383613498565b612b2360008261342a565b6001600160a01b0383166000908152600560205260408120805460019290612b4c90849061471a565b90915550506001600160a01b0382166000908152600560205260408120805460019290612b7a9084906146cf565b909155505060008181526004602052604080822080546001600160a01b0319166001600160a01b0386811691821790925591518493918716917fddf252ad1be2c89b69c2b068fc378daa952ba7f163c4a11628f55a4df523b3ef91a4505050565b600082815260208190526040902060010154612bf8905b336107c1565b6127b55760405162461bcd60e51b815260206004820152602f60248201527f416363657373436f6e74726f6c3a2073656e646572206d75737420626520616e60448201527f2061646d696e20746f206772616e7400000000000000000000000000000000006064820152608401610c47565b60008181526001830160205260408120541515611af8565b6000611af883836134a3565b6000611af883836135b4565b6000611af8838361369d565b600082815260166020526040902060038101805483919060ff19166001836004811115612cd557612cd5614804565b0217905550505050565b6001600160a01b0381163314612d5d5760405162461bcd60e51b815260206004820152602f60248201527f416363657373436f6e74726f6c3a2063616e206f6e6c792072656e6f756e636560448201527f20726f6c657320666f722073656c6600000000000000000000000000000000006064820152608401610c47565b610cde82826136df565b6000611af8836001600160a01b0384166135b4565b600b546001600160a01b03163314612dd65760405162461bcd60e51b815260206004820181905260248201527f4f776e61626c653a2063616c6c6572206973206e6f7420746865206f776e65726044820152606401610c47565b6110b88161375e565b60095460ff1615612e255760405162461bcd60e51b815260206004820152601060248201526f14185d5cd8589b194e881c185d5cd95960821b6044820152606401610c47565b6009805460ff191660011790557f62e78cea01bee320cd4e420270b5ea74000d11b0c9f74754ebdbfc544b05a258612e5a3390565b6040516001600160a01b03909116815260200160405180910390a1565b6000610b3a825490565b600080612e8e848461379e565b915091509250929050565b6000818152600460205260408120546001600160a01b031680610b3a5760405162461bcd60e51b815260206004820152602960248201527f4552433732313a206f776e657220717565727920666f72206e6f6e657869737460448201527f656e7420746f6b656e00000000000000000000000000000000000000000000006064820152608401610c47565b6000611af8838361383b565b610cde8282604051806020016040528060008152506138c1565b6000612a1484848461393f565b6000828152600460205260409020546001600160a01b0316612fe15760405162461bcd60e51b815260206004820152602e60248201527f45524337323155524953746f726167653a2055524920736574206f66206e6f6e60448201527f6578697374656e7420746f6b656e0000000000000000000000000000000000006064820152608401610c47565b60008281526008602090815260409091208251610e2892840190614092565b60095460ff166130525760405162461bcd60e51b815260206004820152601460248201527f5061757361626c653a206e6f74207061757365640000000000000000000000006044820152606401610c47565b6009805460ff191690557f5db9ee0a495bf2e6ff9c91a7834c1ba4fdd244a5e8aa4e537bd38aeae4b073aa33612e5a565b61308e848484612a1c565b61309a848484846139e0565b611cad5760405162461bcd60e51b815260206004820152603260248201527f4552433732313a207472616e7366657220746f206e6f6e20455243373231526560448201527131b2b4bb32b91034b6b83632b6b2b73a32b960711b6064820152608401610c47565b6000818152600460205260409020546060906001600160a01b031661318e5760405162461bcd60e51b815260206004820152603160248201527f45524337323155524953746f726167653a2055524920717565727920666f722060448201527f6e6f6e6578697374656e7420746f6b656e0000000000000000000000000000006064820152608401610c47565b600082815260086020526040812080546131a790614774565b80601f01602080910402602001604051908101604052809291908181526020018280546131d390614774565b80156132205780601f106131f557610100808354040283529160200191613220565b820191906000526020600020905b81548152906001019060200180831161320357829003601f168201915b505050505090506000613231613b38565b9050805160001415613244575092915050565b81511561327657808260405160200161325e92919061451b565b60405160208183030381529060405292505050919050565b612a1484613b47565b6000611af883836133b6565b6000828152602081905260409020600101546132a690612bf2565b612d5d5760405162461bcd60e51b815260206004820152603060248201527f416363657373436f6e74726f6c3a2073656e646572206d75737420626520616e60448201527f2061646d696e20746f207265766f6b65000000000000000000000000000000006064820152608401610c47565b6000828152602081815260408083206001600160a01b038516845290915290205460ff16610cde576000828152602081815260408083206001600160a01b03851684529091529020805460ff191660011790556133723390565b6001600160a01b0316816001600160a01b0316837f2f8788117e7eff1d82e926ec794901d17c78024a50270940304540a733656f0d60405160405180910390a45050565b60008181526001830160205260408120546133fd57508154600181810184556000848152602080822090930184905584548482528286019093526040902091909155610b3a565b506000610b3a565b60006001600160e01b03198216635a05180f60e01b1480610b3a5750610b3a82613c2f565b600081815260066020526040902080546001600160a01b0319166001600160a01b038416908117909155819061345f82612e99565b6001600160a01b03167f8c5be1e5ebec7d5bd14f71427d1e84f3dd0314c0f7b2291e5b200ac8c7c3b92560405160405180910390a45050565b610e28838383613c64565b600081815260018301602052604081205480156135aa5760006134c760018361471a565b85549091506000906134db9060019061471a565b905060008660000182815481106134f4576134f4614830565b906000526020600020906002020190508087600001848154811061351a5761351a614830565b600091825260209091208254600290920201908155600191820154908201556135449084906146cf565b8154600090815260018901602052604090205586548790806135685761356861481a565b6000828152602080822060026000199094019384020182815560019081018390559290935588815289820190925260408220919091559450610b3a9350505050565b6000915050610b3a565b600081815260018301602052604081205480156135aa5760006135d860018361471a565b85549091506000906135ec9060019061471a565b9050600086600001828154811061360557613605614830565b906000526020600020015490508087600001848154811061362857613628614830565b60009182526020909120015561363f8360016146cf565b600082815260018901602052604090205586548790806136615761366161481a565b60019003818190600052602060002001600090559055866001016000878152602001908152602001600020600090556001945050505050610b3a565b6000611af883836040518060400160405280601e81526020017f456e756d657261626c654d61703a206e6f6e6578697374656e74206b65790000815250613cdd565b6000828152602081815260408083206001600160a01b038516845290915290205460ff1615610cde576000828152602081815260408083206001600160a01b0385168085529252808320805460ff1916905551339285917ff6391f5c32d9c69d2a47ea670b442974b53935d1edc7fd64eb21e047a839171b9190a45050565b61376781613d46565b6000818152600860205260409020805461378090614774565b1590506110b85760008181526008602052604081206110b891614116565b8154600090819083106137fe5760405162461bcd60e51b815260206004820152602260248201527f456e756d657261626c654d61703a20696e646578206f7574206f6620626f756e604482015261647360f01b6064820152608401610c47565b600084600001848154811061381557613815614830565b906000526020600020906002020190508060000154816001015492509250509250929050565b815460009082106138995760405162461bcd60e51b815260206004820152602260248201527f456e756d657261626c655365743a20696e646578206f7574206f6620626f756e604482015261647360f01b6064820152608401610c47565b8260000182815481106138ae576138ae614830565b9060005260206000200154905092915050565b6138cb8383613ded565b6138d860008484846139e0565b610e285760405162461bcd60e51b815260206004820152603260248201527f4552433732313a207472616e7366657220746f206e6f6e20455243373231526560448201527131b2b4bb32b91034b6b83632b6b2b73a32b960711b6064820152608401610c47565b6000828152600184016020526040812054806139a4575050604080518082018252838152602080820184815286546001818101895560008981528481209551600290930290950191825591519082015586548684528188019092529290912055611af8565b82856139b160018461471a565b815481106139c1576139c1614830565b9060005260206000209060020201600101819055506000915050611af8565b60006001600160a01b0384163b15613b2d57604051630a85bd0160e11b81526001600160a01b0385169063150b7a0290613a2490339089908890889060040161454a565b602060405180830381600087803b158015613a3e57600080fd5b505af1925050508015613a6e575060408051601f3d908101601f19168201909252613a6b91810190614412565b60015b613b13573d808015613a9c576040519150601f19603f3d011682016040523d82523d6000602084013e613aa1565b606091505b508051613b0b5760405162461bcd60e51b815260206004820152603260248201527f4552433732313a207472616e7366657220746f206e6f6e20455243373231526560448201527131b2b4bb32b91034b6b83632b6b2b73a32b960711b6064820152608401610c47565b805181602001fd5b6001600160e01b031916630a85bd0160e11b149050612a14565b506001949350505050565b606060138054610b4f90614774565b6000818152600460205260409020546060906001600160a01b0316613bd45760405162461bcd60e51b815260206004820152602f60248201527f4552433732314d657461646174613a2055524920717565727920666f72206e6f60448201527f6e6578697374656e7420746f6b656e00000000000000000000000000000000006064820152608401610c47565b6000613bde613b38565b90506000815111613bfe5760405180602001604052806000815250611af8565b80613c0884613f3b565b604051602001613c1992919061451b565b6040516020818303038152906040529392505050565b60006001600160e01b03198216637965db0b60e01b1480610b3a57506301ffc9a760e01b6001600160e01b0319831614610b3a565b60095460ff1615610e285760405162461bcd60e51b815260206004820152602b60248201527f4552433732315061757361626c653a20746f6b656e207472616e73666572207760448201527f68696c65207061757365640000000000000000000000000000000000000000006064820152608401610c47565b60008281526001840160205260408120548281613d0d5760405162461bcd60e51b8152600401610c479190614627565b5084613d1a60018361471a565b81548110613d2a57613d2a614830565b9060005260206000209060020201600101549150509392505050565b6000613d5182612e99565b9050613d5f81600084613498565b613d6a60008361342a565b6001600160a01b0381166000908152600560205260408120805460019290613d9390849061471a565b909155505060008281526004602052604080822080546001600160a01b0319169055518391906001600160a01b038416907fddf252ad1be2c89b69c2b068fc378daa952ba7f163c4a11628f55a4df523b3ef908390a45050565b6001600160a01b038216613e435760405162461bcd60e51b815260206004820181905260248201527f4552433732313a206d696e7420746f20746865207a65726f20616464726573736044820152606401610c47565b6000818152600460205260409020546001600160a01b031615613ea85760405162461bcd60e51b815260206004820152601c60248201527f4552433732313a20746f6b656e20616c7265616479206d696e746564000000006044820152606401610c47565b613eb460008383613498565b6001600160a01b0382166000908152600560205260408120805460019290613edd9084906146cf565b909155505060008181526004602052604080822080546001600160a01b0319166001600160a01b03861690811790915590518392907fddf252ad1be2c89b69c2b068fc378daa952ba7f163c4a11628f55a4df523b3ef908290a45050565b606081613f5f5750506040805180820190915260018152600360fc1b602082015290565b8160005b8115613f895780613f73816147a9565b9150613f829050600a836146e7565b9150613f63565b60008167ffffffffffffffff811115613fa457613fa4614846565b6040519080825280601f01601f191660200182016040528015613fce576020820181803683370190505b5090505b8415612a1457613fe360018361471a565b9150613ff0600a866147c4565b613ffb9060306146cf565b60f81b81838151811061401057614010614830565b60200101907effffffffffffffffffffffffffffffffffffffffffffffffffffffffffffff1916908160001a90535061404a600a866146e7565b9450613fd2565b60405180608001604052806060815260200160006001600160a01b03168152602001600081526020016000600481111561408d5761408d614804565b905290565b82805461409e90614774565b90600052602060002090601f0160209004810192826140c05760008555614106565b82601f106140d957805160ff1916838001178555614106565b82800160010185558215614106579182015b828111156141065782518255916020019190600101906140eb565b5061411292915061414c565b5090565b50805461412290614774565b6000825580601f10614132575050565b601f0160209004906000526020600020908101906110b891905b5b80821115614112576000815560010161414d565b600067ffffffffffffffff8084111561417c5761417c614846565b604051601f8501601f19908116603f011681019082821181831017156141a4576141a4614846565b816040528093508581528686860111156141bd57600080fd5b858560208301376000602087830101525050509392505050565b80356001600160a01b03811681146141ee57600080fd5b919050565b600082601f83011261420457600080fd5b611af883833560208501614161565b60006020828403121561422557600080fd5b611af8826141d7565b6000806040838503121561424157600080fd5b61424a836141d7565b9150614258602084016141d7565b90509250929050565b60008060006060848603121561427657600080fd5b61427f846141d7565b925061428d602085016141d7565b9150604084013590509250925092565b600080600080608085870312156142b357600080fd5b6142bc856141d7565b93506142ca602086016141d7565b925060408501359150606085013567ffffffffffffffff8111156142ed57600080fd5b8501601f810187136142fe57600080fd5b61430d87823560208401614161565b91505092959194509250565b6000806040838503121561432c57600080fd5b614335836141d7565b915060208301356143458161485c565b809150509250929050565b6000806040838503121561436357600080fd5b61436c836141d7565b946020939093013593505050565b60006020828403121561438c57600080fd5b8151611af88161485c565b6000602082840312156143a957600080fd5b5035919050565b600080604083850312156143c357600080fd5b82359150614258602084016141d7565b600080604083850312156143e657600080fd5b50508035926020909101359150565b60006020828403121561440757600080fd5b8135611af88161486a565b60006020828403121561442457600080fd5b8151611af88161486a565b60006020828403121561444157600080fd5b813567ffffffffffffffff81111561445857600080fd5b612a14848285016141f3565b60006020828403121561447657600080fd5b5051919050565b60008060006060848603121561449257600080fd5b83359250602084013567ffffffffffffffff8111156144b057600080fd5b6144bc868287016141f3565b925050604084013590509250925092565b600081518084526144e5816020860160208601614731565b601f01601f19169290920160200192915050565b6005811061451757634e487b7160e01b600052602160045260246000fd5b9052565b6000835161452d818460208801614731565b835190830190614541818360208801614731565b01949350505050565b60006001600160a01b0380871683528086166020840152508360408301526080606083015261457c60808301846144cd565b9695505050505050565b602080825282518282018190526000919060409081850190868401855b828110156145c8578151805185528601518685015292840192908501906001016145a3565b5091979650505050505050565b6020808252825182820181905260009190848201906040850190845b8181101561460d578351835292840192918401916001016145f1565b50909695505050505050565b60208101610b3a82846144f9565b602081526000611af860208301846144cd565b60808152600061464d60808301876144cd565b90506001600160a01b038516602083015283604083015261467160608301846144f9565b95945050505050565b60208152600082516080602084015261469660a08401826144cd565b90506001600160a01b0360208501511660408401526040840151606084015260608401516146c760808501826144f9565b509392505050565b600082198211156146e2576146e26147d8565b500190565b6000826146f6576146f66147ee565b500490565b6000816000190483118215151615614715576147156147d8565b500290565b60008282101561472c5761472c6147d8565b500390565b60005b8381101561474c578181015183820152602001614734565b83811115611cad5750506000910152565b60008161476c5761476c6147d8565b506000190190565b600181811c9082168061478857607f821691505b6020821081141561185357634e487b7160e01b600052602260045260246000fd5b60006000198214156147bd576147bd6147d8565b5060010190565b6000826147d3576147d36147ee565b500690565b634e487b7160e01b600052601160045260246000fd5b634e487b7160e01b600052601260045260246000fd5b634e487b7160e01b600052602160045260246000fd5b634e487b7160e01b600052603160045260246000fd5b634e487b7160e01b600052603260045260246000fd5b634e487b7160e01b600052604160045260246000fd5b80151581146110b857600080fd5b6001600160e01b0319811681146110b857600080fdfea164736f6c6343000805000a",
  "linkReferences": {},
  "deployedLinkReferences": {}
}